:020000040800F2
:100000000000012025090008B5080008BD08000807
:10001000C5080008CD080008D50800080000000049
:10002000000000000000000000000000016900085E
:10003000DD08000800000000116A0008DD42000829
:100040007509000875090008750900087509000898
:100050007509000875090008750900087509000888
:100060007509000875090008750900087509000878
:100070007509000875090008750900087509000868
:1000800075090008750900087509000800000000DE
:1000900000000000000000000000000075090008DA
:1000A00075090008ED0800087509000875090008C1
:1000B0007509000875090008750900087509000828
:1000C0007509000875090008750900087509000818
:1000D000750900087509000875090008000000008E
:1000E000750900087509000875090008000000007E
:1000F000000000000000000000000000750900087A
:10010000000000007509000875090008750900085D
:1001100000000000000000000000000000000000DF
:1001200075090008750900087509000875090008B7
:100130007509000800000000000000000000000039
:100140000000000000000000000000007509000829
:100150007509000875090008750900087509000887
:100160007509000875090008000000000000000083
:10017000000000000000000000000000000000007F
:1001800000000000750900080000000000000000E9
:0401900075090008E5
:1001A00010B5054C237833B9044B13B10448AFF3B1
:1001B00000800123237010BD5801002000000000C2
:1001C0001470000808B5034B1BB103490348AFF393
:1001D000008008BD000000005C01002014700008D1
:1001E00053B94AB9002908BF00281CBF4FF0FF319E
:1001F0004FF0FF3000F06AB9ADF1080C6DE904CEA4
:1002000000F006F8DDF804E0DDE9022304B07047F1
:100210002DE9F047089D0C46002B4ED194468C45A5
:100220008646B2FA82F262D94AB1C2F12003914005
:1002300020FA03F30CFA02FC194300FA02FE4FEA1B
:100240001C471FFA8CF6B1FBF7F44FEA1E4307FB7D
:10025000141143EA014304FB06F199420AD91CEB4D
:10026000030304F1FF3080F01281994240F20F81C4
:10027000023C6344591A1FFA8EF3B1FBF7F007FBF7
:10028000101143EA014300FB06F69E420AD91CEB1B
:10029000030300F1FF3180F0FC809E4240F2F980C0
:1002A000634402389B1B40EA044000211DB1D34047
:1002B0000022C5E90032BDE8F0878B4205D90DB1B7
:1002C000C5E9000100210846F5E7B3FA83F10029EA
:1002D00046D1A34202D39042C0F0F080861A64EB6C
:1002E00003030120002DE6D0C5E90063E3E7002AFF
:1002F00040F09080A1EB0C044FEA1C481FFA8CF7E9
:100300000121B4FBF8F64FEA1E4308FB164443EA0A
:10031000044307FB06F0984208D91CEB030306F1DF
:10032000FF3402D2984200F2CD8026461C1A1FFAF2
:100330008EF3B4FBF8F008FB104443EA044300FBDF
:1003400007F79F4208D91CEB030300F1FF3402D2E8
:100350009F4200F2B0802046DB1B40EA0640A5E742
:10036000C1F120068B4022FA06F71F4320FA06FC53
:1003700004FA01F343EA0C03F44000FA01F8380CE4
:100380004FEA1349B4FBF0FE1FFA87FC00FB1E4442
:1003900049EA04440EFB0CF9A14502FA01F20AD91C
:1003A0003C190EF1FF3A80F08480A14540F2818033
:1003B000AEF1020E3C44A4EB09041FFA83F9B4FB2E
:1003C000F0F300FB134449EA044403FB0CFCA4458E
:1003D00007D93C1903F1FF3067D2A44565D9023B28
:1003E0003C4443EA0E40A0FB0293A4EB0C049C4265
:1003F000CE469C4651D34ED055B1B8EB0E0364EBBC
:100400000C0404FA06F6CB401E43CC40C5E9006458
:10041000002150E7C2F1200320FA03F10CFA02FC9C
:1004200024FA03F394400C434FEA1C4800FA02FEFE
:100430001FFA8CF7B3FBF8F008FB1031230C43EAEA
:10044000014300FB07F1994208D91CEB030300F1BB
:10045000FF362CD299422AD9023863445B1AA4B2DF
:10046000B3FBF8F108FB113344EA034401FB07F343
:10047000A34208D91CEB040401F1FF3613D2A342B6
:1004800011D902396444E41A41EA004139E70446CB
:10049000F0E6084606E7C845AED2B9EB020E63EBBC
:1004A000070C0138A8E73146EDE7034699E73046E7
:1004B000D4E7D6467FE7634402384DE70646234635
:1004C00008460FE7023E634430E700BF704700BFB5
:1004D00080B500AF00F0EAFF00F012F800F070F80D
:1004E00000F054FC00F082FF00F0BCFB03F010FFB2
:1004F00000F0A2FF00F02AFC03F02EFF00BFFDE792
:1005000080B594B000AF07F12003302200211846D7
:1005100006F098FC07F10C0300221A605A609A60FA
:10052000DA601A610023BB60234B1B6C224A43F044
:1005300080531364204B1B6C03F08053BB60BB687B
:1005400000237B601D4B1B6823F440431B4A43F48C
:1005500000431360194B1B6803F440437B607B68C6
:1005600002233B620123FB6210233B630023BB6336
:1005700007F12003184601F073FA0346002B01D05F
:1005800000F0ACF80F23FB6000233B6100237B618C
:100590000023BB610023FB6107F10C030021184617
:1005A00001F0D6FC0346002B01D000F097F800BF05
:1005B0005037BD4680BD00BF00380240007000408B
:1005C00080B489B000AF0023FB613A4B1B6B394A02
:1005D00043F001031363374B1B6B03F00103FB6113
:1005E000FB690023BB61334B1B6B324A43F00203B0
:1005F0001363304B1B6B03F00203BB61BB69002329
:100600007B612C4B1B6C2B4A43F001031364294B79
:100610001B6C03F001037B617B6900233B61254B6D
:100620001B6C244A43F002031364224B1B6C03F03F
:1006300002033B613B690023FB601E4B1B6C1D4AA0
:1006400043F0040313641B4B1B6C03F00403FB60B7
:10065000FB680023BB60174B1B6C164A43F0080372
:100660001364144B1B6C03F00803BB60BB680023CE
:100670007B60104B1B6C0F4A43F4804313640D4B9B
:100680001B6C03F480437B607B6800233B60094B59
:100690005B6C084A43F001035364064B5B6C03F048
:1006A00001033B603B6800BF2437BD465DF8047B17
:1006B000704700BF0038024080B582B000AF78605C
:1006C0007B681B68044A934201D100F011FF00BF10
:1006D0000837BD4680BD00BF0044014080B400AF74
:1006E00072B600BF00BFFDE780B582B000AF002347
:1006F0007B60124B5B6C114A43F4804353640F4B95
:100700005B6C03F480437B607B6800233B600B4B96
:100710001B6C0A4A43F080531364084B1B6C03F0B4
:1007200080533B603B6800220F216FF0010000F016
:10073000B7FF00BF0837BD4680BD00BF003802408C
:1007400080B58AB000AF786007F1140300221A6008
:100750005A609A60DA601A617B681B68194A934292
:100760002CD100233B61184B1B6C174A43F4804388
:100770001364154B1B6C03F480433B613B690023FE
:10078000FB60114B1B6B104A43F0020313630E4BCB
:100790001B6B03F00203FB60FB684FF460437B615B
:1007A0000223BB610023FB6103233B6205237B62C1
:1007B00007F114031946054800F09CFF00BF2837D5
:1007C000BD4680BD003800400038024000040240B1
:1007D00080B58CB000AF78600023BB6200237B62E1
:1007E0000023BB602E4B5B6C2D4A43F400335364F3
:1007F0002B4B5B6C03F40033BB60BB6807F10C024E
:1008000007F110031146184601F06EFD01F058FD86
:10081000B862BB6A234AA2FB03239B0C013B7B62A9
:10082000214B224A1A60204B40F2E732DA601E4A1E
:100830007B6A53601C4B00221A611B4B00229A609A
:10084000194B00229A61184802F060FB034687F8B2
:100850002F3097F82F30002B1BD1134802F0B0FB3C
:10086000034687F82F3097F82F30002B11D119202D
:1008700000F032FF7B680F2B08D80022796819201E
:1008800000F00EFF0A4A7B68136002E0012387F83C
:100890002F3097F82F3018463037BD4680BD00BF47
:1008A0000038024083DE1B437401002000440140F5
:1008B000FC00002080B400AF00BFFDE780B400AFB3
:1008C00000BFFDE780B400AF00BFFDE780B400AF1C
:1008D00000BFFDE780B400AF00BFFDE780B400AF0C
:1008E00000BFBD465DF8047B7047000080B500AFD7
:1008F000024802F0A9FE00BF80BD00BF74010020C5
:1009000080B400AF064BD3F88830054A43F4700337
:10091000C2F8883000BFBD465DF8047B704700BF59
:1009200000ED00E0DFF834D0FFF7EAFF0C480D4996
:100930000D4A002302E0D458C4500433C4188C423A
:10094000F9D30A4A0A4C002301E013600432A242A0
:10095000FBD306F0D5FAFFF7BBFD7047000001207E
:100960000000002058010020B0700008580100204D
:10097000C04E0020FEE780B58EB000AF786007F172
:10098000240300221A605A609A60DA601A6107F143
:10099000080300221A605A609A60DA601A615A618C
:1009A0009A617B685B687B620123BB620023FB6208
:1009B00000233B637B681B6807F12402114618463D
:1009C00000F098FE7B6818687B685B689BB2002229
:1009D000194601F02BF87B68DB687B627B689B68BB
:1009E00007F124021146184600F084FE7B689868DF
:1009F0007B68DB689BB20022194601F017F87B6820
:100A00005B697B620223BB6202233B637B685B6A98
:100A10007B637B681B6907F124021146184600F0CE
:100A200069FE7B689B697A68D2691A607B689B69FA
:100A30000F225A607B689B6900229A617B689B69E0
:100A400000221A617B689B6900229A607B689B691F
:100A50006322DA607B689B69184602F013FB60230F
:100A6000BB600923FB6000233B610023BB617B6803
:100A700098697B681A6A07F10803194602F070FF4B
:100A800000BF3837BD4680BD80B582B000AF78600A
:100A90000B46FB701346BB70BB781946786800F0B4
:100AA0005FF8FB781946786800F00CF87B689A6963
:100AB0007B681B6A1946104602F03EFB00BF0837F0
:100AC000BD4680BD80B483B000AF78600B46FB703C
:100AD000FB78612B31D8FB7807EE903AB8EE677A55
:100AE000DFED1D6AC7EE267A9FED1C7A67EE877AE6
:100AF000B7EE007A77EEC77A7B689B691B68FCEEDD
:100B0000E77A17EE902ADA62FB7807EE903AB8EEB1
:100B1000677ADFED116AC7EE267A9FED107A67EEED
:100B2000877AB7EE007A77EEC77A7B689B69FCEE2E
:100B3000E77A17EE902ADA6008E07B689B691B6809
:100B40000922DA627B689B690922DA6000BF0C37F0
:100B5000BD465DF8047B70470000C2420000C642FB
:100B600080B582B000AF78600B46FB707B68186878
:100B70007B685B689BB20022194600F057FF7B68D8
:100B800098687B68DB689BB20022194600F04EFF34
:100B900000BF7B681A687B685B689BB21946104689
:100BA00000F02CFF0346002BF3D17B689A687B682A
:100BB000DB689BB21946104600F020FF0346002B6D
:100BC000E7D1FB78002B12D17B6818687B685B68E3
:100BD0009BB20122194600F029FF7B6898687B6868
:100BE000DB689BB20022194600F020FF14E0FB787E
:100BF000012B11D17B6818687B685B689BB200226F
:100C0000194600F013FF7B6898687B68DB689BB22D
:100C10000122194600F00AFF00BF0837BD4680BD1B
:100C200080B582B000AF78607B6818687B685B68CD
:100C30009BB20022194600F0F9FE7B6898687B6839
:100C4000DB689BB20022194600F0F0FE7B689A69CF
:100C50007B681B6A1946104602F01EFB00BF08376E
:100C6000BD4680BD80B500AF0348FFF784FE034852
:100C7000FFF781FE00BF80BD040000202C00002093
:100C800080B584B000AF7860FF23FB73022003F0CF
:100C900073FC00F01FF90346FB73FB7B052B13DC91
:100CA000002B4ADB052B48D801A252F823F000BFE5
:100CB000CF0C0008E50C0008F70C0008090D00082F
:100CC0001B0D00082D0D0008FF2B38D035E0002249
:100CD0001E211C48FFF7D8FE00221E211A48FFF7EC
:100CE000D3FE2DE000211748FFF73AFF00211648F8
:100CF000FFF736FF24E001211248FFF731FF012101
:100D00001148FFF72DFF1BE000210E48FFF728FFD9
:100D100001210D48FFF724FF12E001210948FFF7E8
:100D20001FFF00210848FFF71BFF09E00548FFF7F8
:100D300077FF0548FFF774FF02E000BFA6E700BF9A
:100D4000A4E700BF040000202C00002080B58AB07A
:100D500000AF3B4624220021184606F073F8094BE9
:100D60003B604FF400737B612823BB613B461A460E
:100D70000021054803F06EFB786200BF2837BD46AE
:100D800080BD00BF2C700008810C000880B586B0C3
:100D900000AF3B1D00221A605A609A60DA601A6147
:100DA0004FF460437B600223BB600023FB6003239E
:100DB0003B6105237B613B1D19462C4800F09AFCE2
:100DC0004FF480537B600123BB6000233B613B1DDC
:100DD0001946264800F08EFC20237B600023BB6070
:100DE0003B1D1946214800F085FC002220211F48A8
:100DF00000F01CFE01224FF480511C4800F016FE4A
:100E00001B4B1C4A1A601A4B4FF482725A60184BE3
:100E100000229A60164B0022DA60154B00221A61FC
:100E2000134B00225A61124B4FF400729A61104B1F
:100E30000022DA610E4B80221A620D4B00225A62A8
:100E40000B4B00229A620A4B0A22DA62084801F030
:100E50007DFA074B1B681A68054B1B6842F040027D
:100E60001A6000BF1837BD4680BD00BF00040240B5
:100E7000040200200038004080B500AF00224FF48B
:100E80008051024800F0D2FD00BF80BD0004024046
:100E900080B500AF00BF074801F0E7FE0346012B15
:100EA000F9D101224FF48051034800F0BFFD00BF8B
:100EB00080BD00BF040200200004024080B500AFE6
:100EC0002021034800F09AFD0346184680BD00BF6C
:100ED0000004024080B582B000AFFFF7EFFF034689
:100EE000002B01D1FF2313E0FFF7C6FF00BF0A4B21
:100EF0001B689B6803F00103012BF8D1F91D4FF02B
:100F0000FF330122044801F0EEFBFFF7C1FFFB793C
:100F100018460837BD4680BD0402002080B485B065
:100F200000AF78607B68FB60FB6818461437BD46ED
:100F30005DF8047B7047000080B584B000AF786036
:100F40007868FFF7EBFFF8604FF0FF330822F9688D
:100F5000034801F084FA00BF1037BD4680BD00BFD2
:100F60000402002080B584B000AF0346FB71FB791A
:100F7000FB7307F10F014FF0FF330122034801F02B
:100F80006EFA00BF1037BD4680BD00BF04020020CE
:100F900080B500AFA020FFF7E5FF00BF80BD80B5A2
:100FA00000AFB020FFF7DEFF00BF80BD80B592B07C
:100FB00000AF786007F1340300221A605A609A602B
:100FC000DA601A6107F1180300221A605A609A6009
:100FD000DA601A615A619A6107F1080300221A6007
:100FE0005A609A60DA607B689B687B630223BB630C
:100FF0000023FB6302233B647B681B697B647B6883
:101000001B6807F134021146184600F073FB7B6839
:101010001B6A7A6892691A607B681B6A0F225A60A1
:101020007B681B6A00229A617B681B6A00221A6136
:101030007B681B6A00229A607B681B6A49F63F4204
:10104000DA607B681B6A184602F01CF86023BB61FB
:101050000923FB6100233B620023BB627B68186AA3
:101060007B689A6A07F11803194602F079FC7B68DD
:10107000DB687B637B685B697B647B685B6807F12B
:1010800034021146184600F035FB7B685B6A7A68CB
:10109000D2691A607B685B6A00221A777B685B6A98
:1010A0000F225A607B685B6A00229A617B685B6AE8
:1010B00000221A617B685B6A00229A607B685B6A27
:1010C00049F63F42DA607B685B6A184602F048F9ED
:1010D0000A23BB600123FB6000233B6100237B618B
:1010E0007B685B6A07F108010022184602F09CFB4E
:1010F0007B685B6A1B68DA687B685B6A1B6842F026
:101100000202DA607B6893F92C3000220521184630
:1011100000F0C6FA7B6893F92C30184600F0DCFA30
:1011200000BF4837BD4680BD80B582B000AF786053
:101130007B681A6A7B689B6A1946104601F0FCFFBF
:101140007B685B6A0021184602F064F900BF08372B
:10115000BD4680BD80B485B000AF786039600023A3
:10116000FB604FF00003BB603B681A687B681B683C
:10117000D31AFB60FB680A4AA2FB03235B0907EE54
:10118000903AF8EE677AC7ED027ABB6807EE903ABC
:10119000B0EE670A1437BD465DF8047B704700BFA8
:1011A00009CB3D8D80B586B000AFF860B9607A603C
:1011B0003B600021F86802F095FC78613B6A1B787F
:1011C000002B06D1BB687A691A603B6A01221A704B
:1011D00014E07B687A691A603B6A00221A707968A9
:1011E000B868FFF7B7FFF0EE407A3B68C3ED007ACE
:1011F000BB6800221A607B6800221A6000BF1837A3
:10120000BD4680BD80B483B000AF786039607B6834
:101210001B681B6903F00103012B07D17B681B6866
:101220006FF001021A613B6800221A7000BF0C3790
:10123000BD465DF8047B704780B584B002AF78602E
:1012400003F0B0F87B681B68164A934208D1164B2E
:101250000093164B164A17491748FFF7A3FF1AE0E9
:101260007B681B68154A934208D1154B0093154BB8
:10127000154A16491648FFF795FF0CE07B681B6876
:10128000144A934207D1144B0093144B144A154946
:101290001548FFF787FF03F0ABF800BF0837BD46DE
:1012A00080BD00BF000400409A030020E800002039
:1012B0009403002090030020A402002000080040B6
:1012C00098030020F0000020840300208003002009
:1012D000EC020020000C004099030020F8000020E0
:1012E0008C030020880300203403002080B582B0E6
:1012F00000AF7860012003F03FF903F053F808498C
:101300000848FFF77FFF08490848FFF77BFF0849B7
:101310000848FFF777FF03F06BF800BFEAE700BF6C
:101320009A030020A402002098030020EC02002071
:10133000990300203403002080B588B000AF7860A6
:1013400007F1180300221A605A6007F11003002207
:101350001A605A6007F1080300221A605A603220AE
:1013600003F00AF91D4B1B684FF0FF31184603F0DC
:10137000A4F90346002B19D1194A07F1180392E882
:10138000030083E80300174A07F1100392E8030003
:1013900083E80300144A07F1080392E8030083E896
:1013A00003000E4B1B68184603F0D2F9FFF764FDEB
:1013B000FFF7EEFD07F118031846FFF7BDFD07F133
:1013C00010031846FFF7B8FD07F108031846FFF7AA
:1013D000B3FDFFF7E4FDFFF75BFDC0E77C030020F2
:1013E000E4000020EC000020F400002080B500AFF5
:1013F0000C4803F0DCF803460B4A13600B48FFF778
:10140000D5FD0B48FFF7D2FD0A48FFF7CFFD09488D
:10141000FFF78AFE0548FFF787FE0548FFF784FEC1
:1014200000BF80BD907000087C0300208400002075
:10143000B40000205400002080B594B000AF07F144
:10144000240324220021184605F0FCFC134B7B6288
:101450004FF40073BB631823FB633B462422002137
:10146000184605F0EFFC0E4B3B604FF400737B61B8
:101470000823BB6107F124031A460021094802F042
:10148000E9FFF8643B461A460021074802F0E2FFF4
:10149000B86400BF5037BD4680BD00BF487000082B
:1014A00050700008ED1200083913000880B500AF35
:1014B0000E4B1B680D4A43F4007313600B4B1B6803
:1014C0000A4A43F480631360084B1B68074A43F4DD
:1014D00080731360032000F0D8F80F20FFF778F92D
:1014E000FFF702F90023184680BD00BF003C024010
:1014F00080B400AF064B1B781A46064B1B6813449A
:10150000044A136000BFBD465DF8047B704700BF0E
:10151000000100209C03002080B400AF034B1B6837
:101520001846BD465DF8047B704700BF9C03002051
:1015300080B485B000AF78607B6803F00703FB6080
:101540000C4BDB68BB60BA684FF6FF031340BB600F
:10155000FB681A02BB68134343F0BF6343F40033D4
:10156000BB60044ABB68D36000BF1437BD465DF85A
:10157000047B704700ED00E080B400AF044BDB68F3
:101580001B0A03F007031846BD465DF8047B70474D
:1015900000ED00E080B483B000AF0346FB7197F923
:1015A0000730002B0BDBFB7903F01F02074997F98B
:1015B00007305B09012000FA02F241F8232000BF46
:1015C0000C37BD465DF8047B704700BF00E100E0CA
:1015D00080B483B000AF03463960FB7197F90730E0
:1015E000002B0ADB3B68DAB20C4997F9073012018D
:1015F000D2B20B4483F800230AE03B68DAB2084910
:10160000FB7903F00F03043B1201D2B20B441A76AC
:1016100000BF0C37BD465DF8047B704700E100E079
:1016200000ED00E080B489B000AFF860B9607A6086
:10163000FB6803F00703FB61FB69C3F10703042B9D
:1016400028BF0423BB61FB690433062B02D9FB6965
:10165000033B00E000237B614FF0FF32BB6902FADD
:1016600003F3DA43BB681A407B699A404FF0FF31BD
:101670007B6901FA03F3D9437B680B401343184697
:101680002437BD465DF8047B704780B582B000AF5B
:1016900078607868FFF74CFF00BF0837BD4680BD13
:1016A00080B586B000AF0346B9607A60FB73002353
:1016B0007B61FFF761FF78617A68B9687869FFF745
:1016C000B1FF024697F90F3011461846FFF780FF29
:1016D00000BF1837BD4680BD80B582B000AF03465D
:1016E000FB7197F907301846FFF754FF00BF083722
:1016F000BD4680BD80B489B000AF786039600023FA
:101700007B6100233B610023BB610023FB6159E146
:101710000122FB6902FA03F37B613B681B687A696B
:1017200013403B613A697B699A4240F048813B68CB
:101730005B6803F00303012B05D03B685B6803F093
:101740000303022B30D17B689B68BB61FB695B00A4
:10175000032202FA03F3DB43BA691340BB613B681F
:10176000DA68FB695B0002FA03F3BA691343BB61F1
:101770007B68BA699A607B685B68BB610122FB6920
:1017800002FA03F3DB43BA691340BB613B685B6851
:101790001B0903F00102FB6902FA03F3BA69134360
:1017A000BB617B68BA695A603B685B6803F00303FE
:1017B000032B17D07B68DB68BB61FB695B000322EE
:1017C00002FA03F3DB43BA691340BB613B689A68D2
:1017D000FB695B0002FA03F3BA691343BB617B68E0
:1017E000BA69DA603B685B6803F00303022B23D11C
:1017F000FB69DA087B68083253F82230BB61FB6969
:1018000003F007039B000F2202FA03F3DB43BA69DC
:101810001340BB613B681A69FB6903F007039B0037
:1018200002FA03F3BA691343BB61FB69DA087B6808
:101830000832B96943F822107B681B68BB61FB69F9
:101840005B00032202FA03F3DB43BA691340BB6176
:101850003B685B6803F00302FB695B0002FA03F379
:10186000BA691343BB617B68BA691A603B685B68FD
:1018700003F44033002B00F0A2800023FB60574BA1
:101880005B6C564A43F480435364544B5B6C03F4E3
:101890008043FB60FB68524AFB699B08023352F8A5
:1018A0002330BB61FB6903F003039B000F2202FAA4
:1018B00003F3DB43BA691340BB617B68494A934237
:1018C00019D07B68484A934213D07B68474A9342B9
:1018D0000DD07B68464A934207D07B68454A9342C5
:1018E00001D1042308E0072306E0032304E00223D8
:1018F00002E0012300E00023FA6902F003029200F3
:101900009340BA691343BB613549FB699B080233B5
:10191000BA6941F82320384B9B68BB613B69DB43C4
:10192000BA691340BB613B685B6803F48013002B0A
:1019300003D0BA693B691343BB612F4ABB6993600B
:101940002D4BDB68BB613B69DB43BA691340BB616C
:101950003B685B6803F40013002B03D0BA693B6952
:101960001343BB61244ABB69D360234B5B68BB61F3
:101970003B69DB43BA691340BB613B685B6803F4B6
:101980000033002B03D0BA693B691343BB611A4A89
:10199000BB695360184B1B68BB613B69DB43BA6989
:1019A0001340BB613B685B6803F48033002B03D0BA
:1019B000BA693B691343BB610F4ABB691360FB699A
:1019C0000133FB61FB690F2B7FF6A2AE00BF00BFA6
:1019D0002437BD465DF8047B704700BF00380240E5
:1019E00000380140000002400004024000080240AC
:1019F000000C024000100240003C014080B485B061
:101A000000AF78600B467B807B681A697B88134047
:101A1000002B02D00123FB7301E00023FB73FB7B4F
:101A200018461437BD465DF8047B704780B483B018
:101A300000AF78600B467B8013467B707B78002B71
:101A400003D07A887B689A6103E07B881A047B68FC
:101A50009A6100BF0C37BD465DF8047B70470000FB
:101A600080B586B000AF78607B68002B01D1012380
:101A700067E27B681B6803F00103002B75D0884B7D
:101A80009B6803F00C03042B0CD0854B9B6803F080
:101A90000C03082B12D1824B5B6803F48003B3F56F
:101AA000800F0BD17E4B1B6803F40033002B5BD0FF
:101AB0007B685B68002B57D1012342E27B685B683F
:101AC000B3F5803F06D1764B1B68754A43F48033EB
:101AD00013601DE07B685B68B3F5A02F0CD1704BE1
:101AE0001B686F4A43F4802313606D4B1B686C4A7C
:101AF00043F4803313600BE0694B1B68684A23F49E
:101B000080331360664B1B68654A23F4802313609F
:101B10007B685B68002B13D0FFF7FEFC386108E0A0
:101B2000FFF7FAFC02463B69D31A642B01D9032361
:101B300007E25B4B1B6803F40033002BF0D014E08A
:101B4000FFF7EAFC386108E0FFF7E6FC02463B6974
:101B5000D31A642B01D90323F3E1514B1B6803F41F
:101B60000033002BF0D100E000BF7B681B6803F05E
:101B70000203002B63D04A4B9B6803F00C03002B3D
:101B80000BD0474B9B6803F00C03082B1CD1444B34
:101B90005B6803F48003002B16D1414B1B6803F0F4
:101BA0000203002B05D07B68DB68012B01D00123E9
:101BB000C7E13B4B1B6823F0F8027B681B69DB0025
:101BC000374913430B603AE07B68DB68002B20D079
:101BD000344B01221A60FFF79FFC386108E0FFF7E1
:101BE0009BFC02463B69D31A022B01D90323A8E1CF
:101BF0002B4B1B6803F00203002BF0D0284B1B6813
:101C000023F0F8027B681B69DB00254913430B6056
:101C100015E0244B00221A60FFF77EFC386108E0D3
:101C2000FFF77AFC02463B69D31A022B01D9032342
:101C300087E11B4B1B6803F00203002BF0D17B688C
:101C40001B6803F00803002B36D07B685B69002B10
:101C500016D0154B01221A60FFF75EFC386108E0D0
:101C6000FFF75AFC02463B69D31A022B01D9032322
:101C700067E10B4B5B6F03F00203002BF0D01BE01E
:101C8000094B00221A60FFF747FC38610EE0FFF7AE
:101C900043FC02463B69D31A022B07D9032350E1C8
:101CA0000038024000004742800E4742884B5B6F7D
:101CB00003F00203002BEAD17B681B6803F00403E6
:101CC000002B00F097800023FB75814B1B6C03F009
:101CD0008053002B0FD10023BB607D4B1B6C7C4AD3
:101CE00043F0805313647A4B1B6C03F08053BB604A
:101CF000BB680123FB75774B1B6803F48073002BD3
:101D000018D1744B1B68734A43F480731360FFF758
:101D100003FC386108E0FFF7FFFB02463B69D31A7A
:101D2000022B01D903230CE16A4B1B6803F4807377
:101D3000002BF0D07B689B68012B06D1644B1B6F96
:101D4000634A43F0010313671CE07B689B68052B23
:101D50000CD15F4B1B6F5E4A43F0040313675C4B6F
:101D60001B6F5B4A43F0010313670BE0584B1B6F7B
:101D7000574A23F001031367554B1B6F544A23F056
:101D8000040313677B689B68002B15D0FFF7C4FB27
:101D900038610AE0FFF7C0FB02463B69D31A41F203
:101DA0008832934201D90323CBE0494B1B6F03F0E8
:101DB0000203002BEED014E0FFF7AEFB38610AE01F
:101DC000FFF7AAFB02463B69D31A41F288329342DD
:101DD00001D90323B5E03E4B1B6F03F00203002B38
:101DE000EED1FB7D012B05D1394B1B6C384A23F01A
:101DF000805313647B689B69002B00F0A180344BF7
:101E00009B6803F00C03082B5CD07B689B69022B5A
:101E100041D1314B00221A60FFF77EFB386108E0A8
:101E2000FFF77AFB02463B69D31A022B01D9032341
:101E300087E0274B1B6803F00073002BF0D17B6811
:101E4000DA697B681B6A1A437B685B6A9B011A43E9
:101E50007B689B6A5B08013B1B041A437B68DB6A57
:101E60001B061B4913434B601B4B01221A60FFF7F3
:101E700053FB386108E0FFF74FFB02463B69D31A7A
:101E8000022B01D903235CE0114B1B6803F00073A4
:101E9000002BF0D054E0104B00221A60FFF73CFBFF
:101EA000386108E0FFF738FB02463B69D31A022B82
:101EB00001D9032345E0064B1B6803F00073002B98
:101EC000F0D13DE07B689B69012B07D1012338E00D
:101ED0000038024000700040600047421B4B5B68C6
:101EE000FB607B689B69012B28D0FB6803F48002B0
:101EF0007B68DB699A4221D1FB6803F03F027B6873
:101F00001B6A9A421AD1FA6847F6C07313407A687E
:101F1000526A9201934211D1FB6803F440327B680C
:101F20009B6A5B08013B1B049A4207D1FB6803F0E4
:101F300070627B68DB6A1B069A4201D0012300E0D5
:101F4000002318461837BD4680BD00BF0038024048
:101F500080B584B000AF786039607B68002B01D118
:101F60000123CCE0684B1B6803F007033A689A42F0
:101F70000CD9654B3A68D2B21A70634B1B6803F0F8
:101F800007033A689A4201D00123B8E07B681B68D6
:101F900003F00203002B20D07B681B6803F00403CE
:101FA000002B05D0594B9B68584A43F4E05393608B
:101FB0007B681B6803F00803002B05D0534B9B681C
:101FC000524A43F460439360504B9B6823F0F00205
:101FD0007B689B684D4913438B607B681B6803F0EB
:101FE0000103002B44D07B685B68012B07D1474B72
:101FF0001B6803F40033002B19D101237FE07B68B9
:102000005B68022B03D07B685B68032B07D13F4BD7
:102010001B6803F00073002B09D101236FE03B4BD9
:102020001B6803F00203002B01D1012367E0374B4B
:102030009B6823F003027B685B68344913438B6021
:10204000FFF76AFAF8600AE0FFF766FA0246FB68F3
:10205000D31A41F28832934201D903234FE02B4B2C
:102060009B6803F00C027B685B689B009A42EBD193
:10207000254B1B6803F007033A689A420CD2224BA7
:102080003A68D2B21A70204B1B6803F007033A6813
:102090009A4201D0012332E07B681B6803F00403FD
:1020A000002B08D0194B9B6823F4E0527B68DB6857
:1020B000164913438B607B681B6803F00803002BF1
:1020C00009D0124B9B6823F460427B681B69DB00DC
:1020D0000E4913438B6000F021F802460B4B9B68BE
:1020E0001B0903F00F030A49CB5C22FA03F3094AE8
:1020F0001360094B1B681846FEF76AFB002318465D
:102100001037BD4680BD00BF003C02400038024091
:102110007870000800000020FC0000202DE9B04F7E
:1021200090B000AF00237B630023FB6300233B637D
:102130000023BB63594B9B6803F00C03082B0DD0A5
:10214000082B00F2A180002B02D0042B03D09BE0CF
:10215000534BBB639BE0534BBB6398E04F4B5B68B7
:1021600003F03F037B634D4B5B6803F48003002B5C
:1021700028D04A4B5B689B0900223B627A623B6A2B
:10218000C3F308000021474B03FB01F2002300FBCF
:1021900003F31344434AA0FB0212FA620A46BA62EE
:1021A000FA6A1344FB627B6B0022BB61FA61D7E9D8
:1021B0000623D7E90A01FEF713F802460B46134639
:1021C000FB6353E0354B5B689B0900223B617A61FE
:1021D0003B69C3F3080A4FF0000B52465B464FF0D1
:1021E00000004FF00001590141EAD261500102465E
:1021F0000B46B2EB0A0863EB0B094FF000024FF0FD
:1022000000034FEA891343EA98634FEA8812B2EB5E
:10221000080463EB09054FF000024FF00003EB00E8
:1022200043EA5473E20014461D4614EB0A033B6074
:1022300045EB0B037B604FF000024FF00003D7E942
:10224000004529468B02214643EA915321468A02E2
:10225000104619467B6B0022BB60FA60D7E9022367
:10226000FDF7BEFF02460B461346FB630B4B5B6854
:102270001B0C03F0030301335B003B63FA6B3B6B06
:10228000B2FBF3F3BB6302E0054BBB6300BFBB6B68
:1022900018464037BD46BDE8B08F00BF0038024049
:1022A0000024F40040787D0180B400AF034B1B682C
:1022B0001846BD465DF8047B704700BF0000002053
:1022C00080B500AFFFF7F0FF0246054B9B685B0B44
:1022D00003F007030349CB5C22FA03F3184680BDE1
:1022E000003802408870000880B483B000AF786086
:1022F00039607B680F221A60124B9B6803F003025F
:102300007B685A600F4B9B6803F0F0027B689A6011
:102310000C4B9B6803F4E0527B68DA60094B9B68C6
:10232000DB0803F4E0527B681A61074B1B6803F07B
:1023300007023B681A6000BF0C37BD465DF8047B9E
:10234000704700BF00380240003C024080B582B0B8
:1023500000AF78607B68002B01D101237BE07B68B4
:102360005B6A002B08D17B685B68B3F5827F09D07C
:102370007B680022DA6105E07B6800221A617B68D5
:1023800000225A617B6800229A627B6893F8513080
:10239000DBB2002B06D17B68002283F850207868DE
:1023A000FEF7CEF97B68022283F851207B681B6818
:1023B0001A687B681B6822F040021A607B685B68C1
:1023C00003F482727B689B6803F404431A437B68BE
:1023D000DB6803F400631A437B681B6903F00203A4
:1023E0001A437B685B6903F001031A437B689B69AE
:1023F00003F400731A437B68DB6903F038031A4364
:102400007B681B6A03F0800342EA03017B689B6AD6
:1024100003F400527B681B680A431A607B689B695F
:102420001B0C03F004017B685B6A03F010027B68FD
:102430001B680A435A607B681B68DA697B681B6803
:1024400022F40062DA617B6800225A657B6801220F
:1024500083F85120002318460837BD4680BD80B55B
:1024600088B000AFF860B9603B601346FB80FFF7AF
:1024700053F8F861FB887B83FB6893F85130DBB23B
:10248000012B01D002232AE1BB68002B02D0FB887C
:10249000002B01D1012322E1FB6893F85030012B7E
:1024A00001D102231BE1FB68012283F85020FB6865
:1024B000032283F85120FB6800225A65FB68BA6842
:1024C0001A63FB68FA889A86FB68FA88DA86FB68E2
:1024D00000229A63FB6800229A87FB680022DA8751
:1024E000FB6800225A64FB6800221A64FB689B6840
:1024F000B3F5004F0FD1FB681B681A68FB681B68B7
:1025000022F040021A60FB681B681A68FB681B68AF
:1025100042F480421A60FB681B681B6803F04003AA
:10252000402B07D0FB681B681A68FB681B6842F0E9
:1025300040021A60FB68DB68B3F5006F52D1FB689C
:102540005B68002B02D07B8B012B45D1FB681B6B9A
:102550001A88FB681B68DA60FB681B6B9A1CFB68B7
:102560001A63FB68DB8E9BB2013B9AB2FB68DA868A
:1025700032E0FB681B689B6803F00203022B12D158
:10258000FB681B6B1A88FB681B68DA60FB681B6BB7
:102590009A1CFB681A63FB68DB8E9BB2013B9AB204
:1025A000FB68DA8618E0FEF7B7FF0246FB69D31A2C
:1025B0003A689A4203D83B68B3F1FF3F02D13B68C7
:1025C000002B09D1FB68012283F85120FB6800220F
:1025D00083F85020032382E0FB68DB8E9BB2002B44
:1025E000C7D153E0FB685B68002B02D07B8B012BCB
:1025F00047D1FB681A6BFB681B680C3312781A70A2
:10260000FB681B6B5A1CFB681A63FB68DB8E9BB272
:10261000013B9AB2FB68DA8633E0FB681B689B6873
:1026200003F00203022B13D1FB681A6BFB681B68D3
:102630000C3312781A70FB681B6B5A1CFB681A6308
:10264000FB68DB8E9BB2013B9AB2FB68DA8618E02E
:10265000FEF762FF0246FB69D31A3A689A4203D832
:102660003B68B3F1FF3F02D13B68002B09D1FB6807
:10267000012283F85120FB68002283F850200323B5
:102680002DE0FB68DB8E9BB2002BC6D1FA6939685E
:10269000F86800F0E7FB0346002B02D0FB6820221D
:1026A0005A65FB689B68002B0AD100237B61FB689D
:1026B0001B68DB687B61FB681B689B687B617B69CF
:1026C000FB68012283F85120FB68002283F8502028
:1026D000FB685B6D002B01D0012300E0002318464E
:1026E0002037BD4680BD80B588B002AFF860B960C4
:1026F0003B601346FB80FB6893F85130DBB2012B43
:1027000001D0022304E1FB685B68B3F5827F12D13C
:10271000FB689B68002B0ED1FB68042283F85120D4
:10272000FA883B6800931346BA68B968F86800F005
:10273000F3F80346ECE0FEF7EFFE7861BB68002B90
:1027400002D0FB88002B01D10123E1E0FB6893F864
:102750005030012B01D10223DAE0FB68012283F81B
:102760005020FB68042283F85120FB6800225A6540
:10277000FB68BA689A63FB68FA889A87FB68FA88EC
:10278000DA87FB6800221A63FB6800229A86FB68DE
:102790000022DA86FB6800221A64FB6800225A6471
:1027A000FB689B68B3F5004F0FD1FB681B681A6884
:1027B000FB681B6822F040021A60FB681B681A68FD
:1027C000FB681B6822F480421A60FB681B681B6868
:1027D00003F04003402B07D0FB681B681A68FB68B6
:1027E0001B6842F040021A60FB68DB68002B70D166
:1027F00035E0FB681B689B6803F00103012B15D1D2
:10280000FB681B6803F10C02FB689B6B1278D2B269
:102810001A70FB689B6B5A1CFB689A63FB68DB8F22
:102820009BB2013B9AB2FB68DA8718E0FEF774FEB0
:1028300002467B69D31A3A689A4203D83B68B3F1DF
:10284000FF3F02D13B68002B09D1FB68012283F8CE
:102850005120FB68002283F85020032358E0FB68D6
:10286000DB8F9BB2002BC4D138E0FB681B689B68F0
:1028700003F00103012B13D1FB681B68DA68FB68C6
:102880009B6B92B21A80FB689B6B9A1CFB689A63E5
:10289000FB68DB8F9BB2013B9AB2FB68DA8718E0DA
:1028A000FEF73AFE02467B69D31A3A689A4203D889
:1028B0003B68B3F1FF3F02D13B68002B09D1FB68B5
:1028C000012283F85120FB68002283F85020032363
:1028D0001EE0FB68DB8F9BB2002BC6D17A6939689A
:1028E000F86800F059FA0346002B02D0FB6820225A
:1028F0005A65FB68012283F85120FB68002283F8A7
:102900005020FB685B6D002B01D0012300E0002309
:1029100018461837BD4680BD80B58AB000AFF86054
:10292000B9607A607B8001237B62FEF7F5FD386237
:10293000FB6893F85130FB77FB685B68BB617B8871
:10294000FB82FB7F012B0CD0BB69B3F5827F06D1E4
:10295000FB689B68002B02D1FB7F042B01D0022374
:102960007FE1BB68002B05D07B68002B02D07B8801
:10297000002B01D1012374E1FB6893F85030012B47
:1029800001D102236DE1FB68012283F85020FB682E
:1029900093F85130DBB2042B03D0FB68052283F897
:1029A0005120FB6800225A65FB687A689A63FB68CD
:1029B0007A88DA87FB687A889A87FB68BA681A632C
:1029C000FB687A88DA86FB687A889A86FB68002238
:1029D0001A64FB6800225A64FB681B681B6803F0DA
:1029E0004003402B07D0FB681B681A68FB681B6814
:1029F00042F040021A60FB68DB68B3F5006F7ED1DD
:102A0000FB685B68002B02D0FB8A012B6CD1FB6852
:102A10001B6B1A88FB681B68DA60FB681B6B9A1CCF
:102A2000FB681A63FB68DB8E9BB2013B9AB2FB68C2
:102A3000DA8659E0FB681B689B6803F00203022BEF
:102A40001BD1FB68DB8E9BB2002B16D07B6A012B5F
:102A500013D1FB681B6B1A88FB681B68DA60FB6884
:102A60001B6B9A1CFB681A63FB68DB8E9BB2013BF5
:102A70009AB2FB68DA8600237B62FB681B689B685E
:102A800003F00103012B19D1FB68DB8F9BB2002BF4
:102A900014D0FB681B68DA68FB689B6B92B21A80E3
:102AA000FB689B6B9A1CFB689A63FB68DB8F9BB28D
:102AB000013B9AB2FB68DA8701237B62FEF72CFDAB
:102AC00002463B6AD31A3A6B9A420DD83B6BB3F17C
:102AD000FF3F09D0FB68012283F85120FB680022E8
:102AE00083F850200323BCE0FB68DB8E9BB2002BF5
:102AF000A0D1FB68DB8F9BB2002B9BD182E0FB68EF
:102B00005B68002B02D0FB8A012B71D1FB681A6B2A
:102B1000FB681B680C3312781A70FB681B6B5A1C1D
:102B2000FB681A63FB68DB8E9BB2013B9AB2FB68C1
:102B3000DA865DE0FB681B689B6803F00203022BEA
:102B40001CD1FB68DB8E9BB2002B17D07B6A012B5C
:102B500014D1FB681A6BFB681B680C3312781A706F
:102B6000FB681B6B5A1CFB681A63FB68DB8E9BB20D
:102B7000013B9AB2FB68DA8600237B62FB681B6824
:102B80009B6803F00103012B19D1FB68DB8F9BB21B
:102B9000002B14D0FB681B68DA68FB689B6BD2B211
:102BA0001A70FB689B6B5A1CFB689A63FB68DB8F8F
:102BB0009BB2013B9AB2FB68DA8701237B62FEF786
:102BC000ABFC02463B6AD31A3A6B9A4203D83B6B82
:102BD000B3F1FF3F02D13B6B002B09D1FB6801220F
:102BE00083F85120FB68002283F85020032338E04B
:102BF000FB68DB8E9BB2002B9CD1FB68DB8F9BB20A
:102C0000002B97D13A6A396BF86800F02BF903462C
:102C1000002B08D0FB6820225A65FB68002283F84D
:102C2000502001231DE0FB689B68002B0AD1002384
:102C30003B61FB681B68DB683B61FB681B689B684A
:102C40003B613B69FB68012283F85120FB6800224D
:102C500083F85020FB685B6D002B01D0012300E05E
:102C6000002318462837BD4680BD80B483B000AF2E
:102C700078607B6893F85130DBB218460C37BD465C
:102C80005DF8047B7047000080B588B000AFF86045
:102C9000B9603B601346FB71FEF73EFC0246BB6A1F
:102CA0009B1A3A681344FB61FEF736FCB861394B56
:102CB0001B685B011B0DFA6902FB03F37B6154E0A7
:102CC0003B68B3F1FF3F50D0FEF726FC0246BB69DC
:102CD000D31AFA699A4202D9FB69002B3DD1FB68ED
:102CE0001B685A68FB681B6822F0E0025A60FB68A8
:102CF0005B68B3F5827F11D1FB689B68B3F5004F29
:102D000004D0FB689B68B3F5806F07D1FB681B6834
:102D10001A68FB681B6822F040021A60FB689B6A15
:102D2000B3F5005F0FD1FB681B681A68FB681B686E
:102D300022F400521A60FB681B681A68FB681B6863
:102D400042F400521A60FB68012283F85120FB68AC
:102D5000002283F85020032317E07B69002B01D168
:102D60000023FB617B69013B7B61FB681B689A6800
:102D7000BB681340BA689A420CBF01230023DBB240
:102D80001A46FB799A429BD1002318462037BD464C
:102D900080BD00BF0000002080B586B002AFF860A3
:102DA000B9607A60FB685B68B3F5827F11D1FB681C
:102DB0009B68B3F5004F04D0FB689B68B3F5806F48
:102DC00007D1FB681B681A68FB681B6822F0400289
:102DD0001A60FB685B68B3F5827F2AD1FB689B6849
:102DE000B3F5806F12D07B680093BB68002280210E
:102DF000F868FFF749FF0346002B2DD0FB685B6D99
:102E000043F02002FB685A65032326E07B680093A9
:102E1000BB6800220121F868FFF736FF0346002B4C
:102E20001AD0FB685B6D43F02002FB685A650323F0
:102E300013E07B680093BB6800220121F868FFF76C
:102E400023FF0346002B07D0FB685B6D43F0200295
:102E5000FB685A65032300E0002318461037BD467F
:102E600080BD000080B588B002AFF860B9607A60BC
:102E70007B680093BB6801220221F868FFF704FF1A
:102E80000346002B07D0FB685B6D43F02002FB6814
:102E90005A65032332E01B4B1B681B4AA2FB03232A
:102EA0005B0D4FF47A7202FB03F37B61FB685B6896
:102EB000B3F5827F12D17B680093BB68002280212A
:102EC000F868FFF7E1FE0346002B16D0FB685B6D48
:102ED00043F02002FB685A6503230FE07B69002B57
:102EE0000AD07B69013B7B61FB681B689B6803F030
:102EF0008003802BF2D000E000BF00231846183773
:102F0000BD4680BD00000020819F5E1680B582B066
:102F100000AF78607B68002B01D1012341E07B6822
:102F200093F83D30DBB2002B06D17B68002283F89A
:102F30003C20786800F039F87B68022283F83D2055
:102F40007B681A687B6804331946104600F02CFE33
:102F50007B68012283F846207B68012283F83E20AB
:102F60007B68012283F83F207B68012283F84020A0
:102F70007B68012283F841207B68012283F842208C
:102F80007B68012283F843207B68012283F8442078
:102F90007B68012283F845207B68012283F83D206D
:102FA000002318460837BD4680BD80B483B000AF0B
:102FB000786000BF0C37BD465DF8047B70470000A9
:102FC00080B485B000AF78607B6893F83D30DBB2A9
:102FD000012B01D0012344E07B68022283F83D20CD
:102FE0007B681B68DA687B681B6842F00102DA6064
:102FF0007B681B681E4A934218D07B681B68B3F13C
:10300000804F13D07B681B681A4A93420ED07B68AE
:103010001B68194A934209D07B681B68174A934280
:1030200004D07B681B68164A934211D17B681B68E9
:103030009B6803F00703FB60FB68062B10D07B68DE
:103040001B681A687B681B6842F001021A6007E07F
:103050007B681B681A687B681B6842F001021A6073
:10306000002318461437BD465DF8047B704700BF47
:10307000000001400004004000080040000C004037
:103080000040014080B582B000AF78607B68002BC3
:1030900001D1012341E07B6893F83D30DBB2002B86
:1030A00006D17B68002283F83C20786800F039F86C
:1030B0007B68022283F83D207B681A687B680433B2
:1030C0001946104600F070FD7B68012283F8462007
:1030D0007B68012283F83E207B68012283F83F2031
:1030E0007B68012283F840207B68012283F841201D
:1030F0007B68012283F842207B68012283F8432009
:103100007B68012283F844207B68012283F84520F4
:103110007B68012283F83D20002318460837BD460E
:1031200080BD80B483B000AF786000BF0C37BD466F
:103130005DF8047B7047000080B584B000AF786014
:1031400039603B68002B09D17B6893F83E30DBB2D5
:10315000012B14BF01230023DBB222E03B68042BC8
:1031600009D17B6893F83F30DBB2012B14BF0123F8
:103170000023DBB215E03B68082B09D17B6893F88C
:103180004030DBB2012B14BF01230023DBB208E087
:103190007B6893F84130DBB2012B14BF012300237D
:1031A000DBB2002B01D0012368E03B68002B04D187
:1031B0007B68022283F83E2013E03B68042B04D195
:1031C0007B68022283F83F200BE03B68082B04D188
:1031D0007B68022283F8402003E07B68022283F8A8
:1031E00041207B681B6801223968184601F012F8FB
:1031F0007B681B68234A934207D17B681B685A6C23
:103200007B681B6842F400425A647B681B681D4A55
:10321000934218D07B681B68B3F1804F13D07B6852
:103220001B68194A93420ED07B681B68174A934269
:1032300009D07B681B68164A934204D07B681B68E0
:10324000144A934211D17B681B689B6803F0070303
:10325000FB60FB68062B10D07B681B681A687B68D4
:103260001B6842F001021A6007E07B681B681A685D
:103270007B681B6842F001021A6000231846103771
:10328000BD4680BD00000140000400400008004031
:10329000000C00400040014080B582B000AF786073
:1032A00039607B681B6800223968184600F0B2FF5D
:1032B0007B681B68294A934217D17B681B681A6A8E
:1032C00041F211131340002B0FD17B681B681A6A5F
:1032D00040F244431340002B07D17B681B685A6CB3
:1032E0007B681B6822F400425A647B681B681A6A78
:1032F00041F211131340002B0FD17B681B681A6A2F
:1033000040F244431340002B07D17B681B681A68C6
:103310007B681B6822F001021A603B68002B04D115
:103320007B68012283F83E2013E03B68042B04D124
:103330007B68012283F83F200BE03B68082B04D117
:103340007B68012283F8402003E07B68012283F838
:103350004120002318460837BD4680BD00000140CB
:1033600080B582B000AF78607B68002B01D101236B
:1033700041E07B6893F83D30DBB2002B06D17B68DF
:10338000002283F83C20786800F039F87B6802223C
:1033900083F83D207B681A687B6804331946104621
:1033A00000F002FC7B68012283F846207B68012242
:1033B00083F83E207B68012283F83F207B6801224E
:1033C00083F840207B68012283F841207B6801223A
:1033D00083F842207B68012283F843207B68012226
:1033E00083F844207B68012283F845207B68012212
:1033F00083F83D20002318460837BD4680BD80B4C1
:1034000083B000AF786000BF0C37BD465DF8047B29
:103410007047000080B584B000AF78603960002349
:10342000FB733B68002B04D17B6893F83E30DBB222
:1034300013E03B68042B04D17B6893F83F30DBB288
:103440000BE03B68082B04D17B6893F84030DBB27B
:1034500003E07B6893F84130DBB2BB733B68002B21
:1034600004D17B6893F84230DBB213E03B68042B55
:1034700004D17B6893F84330DBB20BE03B68082B48
:1034800004D17B6893F84430DBB203E07B6893F8A7
:103490004530DBB27B73BB7B012B02D17B7B012BE5
:1034A00001D00123C2E03B68002B04D17B680222DB
:1034B00083F83E2013E03B68042B04D17B68022292
:1034C00083F83F200BE03B68082B04D17B68022285
:1034D00083F8402003E07B68022283F841203B68A8
:1034E000002B04D17B68022283F8422013E03B6862
:1034F000042B04D17B68022283F843200BE03B6855
:10350000082B04D17B68022283F8442003E07B6807
:10351000022283F845203B680C2B41D801A252F8C7
:1035200023F000BF59350008A1350008A135000877
:10353000A13500086B350008A1350008A135000849
:10354000A13500087D350008A1350008A135000827
:10355000A13500088F3500087B681B68DA687B6836
:103560001B6842F00202DA601DE07B681B68DA68C3
:103570007B681B6842F00402DA6014E07B681B6819
:10358000DA687B681B6842F00802DA600BE07B684F
:103590001B68DA687B681B6842F01002DA6002E0A0
:1035A0000123FB7300BFFB7B002B3ED17B681B68B4
:1035B00001223968184600F02DFE7B681B681D4A01
:1035C000934218D07B681B68B3F1804F13D07B689F
:1035D0001B68194A93420ED07B681B68174A9342B6
:1035E00009D07B681B68164A934204D07B681B682D
:1035F000144A934211D17B681B689B6803F0070350
:10360000BB60BB68062B10D07B681B681A687B68A0
:103610001B6842F001021A6007E07B681B681A68A9
:103620007B681B6842F001021A60FB7B184610376A
:10363000BD4680BD0000014000040040000800407D
:10364000000C00400040014080B584B000AF7860BD
:103650007B681B68DB68FB607B681B681B69BB6061
:10366000BB6803F00203002B20D0FB6803F00203C9
:10367000002B1BD07B681B686FF002021A617B680D
:1036800001221A777B681B689B6903F00303002BF8
:1036900003D07868FDF7D0FD05E0786800F066FAA1
:1036A000786800F06DFA7B6800221A77BB6803F037
:1036B0000403002B20D0FB6803F00403002B1BD075
:1036C0007B681B686FF004021A617B6802221A771C
:1036D0007B681B689B6903F44073002B03D07868F8
:1036E000FDF7AAFD05E0786800F040FA786800F080
:1036F00047FA7B6800221A77BB6803F00803002BA7
:1037000020D0FB6803F00803002B1BD07B681B68EC
:103710006FF008021A617B6804221A777B681B68C5
:10372000DB6903F00303002B03D07868FDF784FD09
:1037300005E0786800F01AFA786800F021FA7B68F2
:1037400000221A77BB6803F01003002B20D0FB681F
:1037500003F01003002B1BD07B681B686FF0100276
:103760001A617B6808221A777B681B68DB6903F49F
:103770004073002B03D07868FDF75EFD05E07868A4
:1037800000F0F4F9786800F0FBF97B6800221A7702
:10379000BB6803F00103002B0CD0FB6803F00103AE
:1037A000002B07D07B681B686FF001021A617868F4
:1037B000FCF782FFBB6803F08003002B0CD0FB6892
:1037C00003F08003002B07D07B681B686FF080023A
:1037D0001A61786800F04DFDBB6803F04003002BD0
:1037E0000CD0FB6803F04003002B07D07B681B68FC
:1037F0006FF040021A61786800F0CCF9BB6803F002
:103800002003002B0CD0FB6803F02003002B07D013
:103810007B681B686FF020021A61786800F01FFD5A
:1038200000BF1037BD4680BD80B586B000AFF860E0
:10383000B9607A600023FB75FB6893F83C30012B7C
:1038400001D1022388E0FB68012283F83C207B68D9
:10385000002B1BD1FB681868BB681968BB685A68E5
:10386000BB68DB6800F0B8FBFB681B689A69FB6803
:103870001B6822F00C029A61FB681B689969BB689F
:103880009A68FB681B680A439A6160E07B68042BB6
:103890001CD1FB681868BB681968BB685A68BB68AC
:1038A000DB6800F001FCFB681B689A69FB681B6819
:1038B00022F440629A61FB681B689969BB689B6847
:1038C0001A02FB681B680A439A6140E07B68082B78
:1038D0001BD1FB681868BB681968BB685A68BB686D
:1038E000DB6800F01EFCFB681B68DA69FB681B687C
:1038F00022F00C02DA61FB681B68D969BB689A6820
:10390000FB681B680A43DA6121E07B680C2B1CD141
:10391000FB681868BB681968BB685A68BB68DB68D5
:1039200000F03BFCFB681B68DA69FB681B6822F44B
:103930004062DA61FB681B68D969BB689B681A0240
:10394000FB681B680A43DA6101E00123FB75FB6831
:10395000002283F83C20FB7D18461837BD4680BD09
:1039600080B586B000AFF860B9607A600023FB755F
:10397000FB6893F83C30012B01D10223AEE0FB68D9
:10398000012283F83C207B680C2B00F29F8001A26F
:1039900052F823F0C9390008CD3A0008CD3A0008A2
:1039A000CD3A0008093A0008CD3A0008CD3A00089F
:1039B000CD3A00084B3A0008CD3A0008CD3A00084D
:1039C000CD3A00088B3A0008FB681B68B9681846B6
:1039D00000F076F9FB681B689A69FB681B6842F087
:1039E00008029A61FB681B689A69FB681B6822F0F1
:1039F00004029A61FB681B689969BB681A69FB68D5
:103A00001B680A439A6164E0FB681B68B968184642
:103A100000F0BCF9FB681B689A69FB681B6842F4FC
:103A200000629A61FB681B689A69FB681B6822F454
:103A300080629A61FB681B689969BB681B691A02FE
:103A4000FB681B680A439A6143E0FB681B68B9681E
:103A5000184600F007FAFB681B68DA69FB681B6808
:103A600042F00802DA61FB681B68DA69FB681B68D0
:103A700022F00402DA61FB681B68D969BB681A6925
:103A8000FB681B680A43DA6123E0FB681B68B968BE
:103A9000184600F051FAFB681B68DA69FB681B687E
:103AA00042F40062DA61FB681B68DA69FB681B6834
:103AB00022F48062DA61FB681B68D969BB681B6904
:103AC0001A02FB681B680A43DA6102E00123FB75F6
:103AD00000BFFB68002283F83C20FB7D18461837A6
:103AE000BD4680BD80B485B000AF786039600023EA
:103AF000FB603B680C2B31D801A252F823F000BFC9
:103B0000353B00085D3B00085D3B00085D3B00085D
:103B10003F3B00085D3B00085D3B00085D3B000843
:103B2000493B00085D3B00085D3B00085D3B000829
:103B3000533B00087B681B685B6BFB600FE07B6896
:103B40001B689B6BFB600AE07B681B68DB6BFB60A0
:103B500005E07B681B681B6CFB6000E000BFFB6836
:103B600018461437BD465DF8047B704780B483B0B7
:103B700000AF786000BF0C37BD465DF8047B70472E
:103B800080B483B000AF786000BF0C37BD465DF8ED
:103B9000047B704780B483B000AF786000BF0C37FF
:103BA000BD465DF8047B704780B485B000AF786097
:103BB00039607B681B68FB607B683A4A93420FD090
:103BC0007B68B3F1804F0BD07B68374A934207D0B4
:103BD0007B68364A934203D07B68354A934208D1CA
:103BE000FB6823F07003FB603B685B68FA68134373
:103BF000FB607B682B4A93421BD07B68B3F1804FFC
:103C000017D07B68284A934213D07B68274A934297
:103C10000FD07B68264A93420BD07B68254A93429B
:103C200007D07B68244A934203D07B68234A93429F
:103C300008D1FB6823F44073FB603B68DB68FA68DB
:103C40001343FB60FB6823F080023B685B6913430E
:103C5000FB607B68FA681A603B689A687B68DA6286
:103C60003B681A687B689A627B680E4A934203D16C
:103C70003B681A697B681A637B6801225A617B681A
:103C80001B6903F00103012B05D17B681B6923F03D
:103C900001027B681A6100BF1437BD465DF8047BE2
:103CA000704700BF000001400004004000080040D1
:103CB000000C004000400140004401400048014029
:103CC00080B487B000AF786039607B681B6A7B6125
:103CD0007B681B6A23F001027B681A627B685B6861
:103CE0003B617B689B69FB60FB6823F07003FB60B2
:103CF000FB6823F00303FB603B681B68FA6813430F
:103D0000FB607B6923F002037B613B689B687A69F7
:103D100013437B617B681C4A93420CD17B6923F07F
:103D200008037B613B68DB687A6913437B617B69CD
:103D300023F004037B617B68134A934211D13B69F2
:103D400023F480733B613B6923F400733B613B6860
:103D50005B693A6913433B613B689B693A6913436A
:103D60003B617B683A695A607B68FA689A613B6894
:103D70005A687B685A637B687A691A6200BF1C378D
:103D8000BD465DF8047B70470000014080B487B0F9
:103D900000AF786039607B681B6A7B617B681B6A57
:103DA00023F010027B681A627B685B683B617B686A
:103DB0009B69FB60FB6823F4E043FB60FB6823F432
:103DC0004073FB603B681B681B02FA681343FB608F
:103DD0007B6923F020037B613B689B681B017A6948
:103DE00013437B617B681E4A93420DD17B6923F0AC
:103DF00080037B613B68DB681B017A6913437B614D
:103E00007B6923F040037B617B68154A934213D1A1
:103E10003B6923F480633B613B6923F400633B61AE
:103E20003B685B699B003A6913433B613B689B6954
:103E30009B003A6913433B617B683A695A607B682F
:103E4000FA689A613B685A687B689A637B687A690A
:103E50001A6200BF1C37BD465DF8047B704700BF87
:103E60000000014080B487B000AF786039607B68A3
:103E70001B6A7B617B681B6A23F480727B681A6211
:103E80007B685B683B617B68DB69FB60FB6823F0F8
:103E90007003FB60FB6823F00303FB603B681B6857
:103EA000FA681343FB607B6923F400737B613B6812
:103EB0009B681B027A6913437B617B681D4A9342AE
:103EC0000DD17B6923F400637B613B68DB681B02D7
:103ED0007A6913437B617B6923F480637B617B6830
:103EE000144A934213D13B6923F480533B613B69ED
:103EF00023F400533B613B685B691B013A69134340
:103F00003B613B689B691B013A6913433B617B68DA
:103F10003A695A607B68FA68DA613B685A687B687C
:103F2000DA637B687A691A6200BF1C37BD465DF8A8
:103F3000047B70470000014080B487B000AF786018
:103F400039607B681B6A3B617B681B6A23F4805283
:103F50007B681A627B685B687B617B68DB69FB60FE
:103F6000FB6823F4E043FB60FB6823F44073FB60D1
:103F70003B681B681B02FA681343FB603B6923F430
:103F800000533B613B689B681B033A6913433B61E9
:103F90007B68104A934209D17B6923F480437B619B
:103FA0003B685B699B017A6913437B617B687A6933
:103FB0005A607B68FA68DA613B685A687B681A6401
:103FC0007B683A691A6200BF1C37BD465DF8047B06
:103FD000704700BF0000014080B487B000AFF860B8
:103FE000B9607A603B60FB681B6A3B61FB681B6AD7
:103FF00023F00102FB681A62FB689B697B61FB6826
:10400000244A934213D0FB68B3F1804F0FD0FB6872
:10401000214A93420BD0FB68204A934207D0FB68A9
:104020001F4A934203D0FB681E4A934201D10123E9
:1040300000E00023002B08D07B6923F003037B61A1
:104040007A697B6813437B6103E07B6943F001037A
:104050007B617B6923F0F0037B613B681B01DBB272
:104060007A6913437B613B6923F00A033B61BB68B8
:1040700003F00A033A6913433B61FB687A699A616A
:10408000FB683A691A6200BF1C37BD465DF8047BC5
:10409000704700BF000001400004004000080040DD
:1040A000000C00400040014080B487B000AFF860D1
:1040B000B9607A603B60FB681B6A7B61FB681B6AC6
:1040C00023F01002FB681A62FB689B693B613B6945
:1040D00023F440733B617B681B023A6913433B61E5
:1040E0003B6923F470433B613B681B039BB23A6915
:1040F00013433B617B6923F0A0037B61BB681B0119
:1041000003F0A0037A6913437B61FB683A699A6103
:10411000FB687A691A6200BF1C37BD465DF8047BF4
:10412000704780B487B000AFF860B9607A603B60D8
:10413000FB681B6A7B61FB681B6A23F48072FB6867
:104140001A62FB68DB693B613B6923F003033B6157
:104150003A697B6813433B613B6923F0F0033B61A1
:104160003B681B01DBB23A6913433B617B6923F473
:1041700020637B61BB681B0203F420637A691343ED
:104180007B61FB683A69DA61FB687A691A6200BF91
:104190001C37BD465DF8047B704780B487B000AF24
:1041A000F860B9607A603B60FB681B6A7B61FB6802
:1041B0001B6A23F48052FB681A62FB68DB693B616F
:1041C0003B6923F440733B617B681B023A691343EC
:1041D0003B613B6923F470433B613B681B039BB22B
:1041E0003A6913433B617B6923F420437B61BB68DD
:1041F0001B0303F420437A6913437B61FB683A692C
:10420000DA61FB687A691A6200BF1C37BD465DF847
:10421000047B704780B487B000AFF860B9607A6003
:10422000BB6803F01F03012202FA03F37B61FB6802
:104230001A6A7B69DB431A40FB681A62FB681A6AD8
:10424000BB6803F01F03796801FA03F31A43FB68A4
:104250001A6200BF1C37BD465DF8047B704780B40E
:1042600083B000AF786000BF0C37BD465DF8047BBB
:10427000704780B483B000AF786000BF0C37BD4694
:104280005DF8047B7047000080B483B000AF034644
:104290003960FB7197F90730002B0ADB3B68DAB213
:1042A0000C4997F907301201D2B20B4483F800236E
:1042B0000AE03B68DAB20849FB7903F00F03043BDC
:1042C0001201D2B20B441A7600BF0C37BD465DF81E
:1042D000047B704700E100E000ED00E080B500AF36
:1042E000054B1B6801F02CFE0346012B01D002F0A8
:1042F000C3FB00BF80BD00BF10E000E080B500AF91
:1043000000216FF00400FFF7BFFF00BF80BD000079
:1043100080B483B000AFEFF305833B603B68002BB4
:1043200003D06FF005037B600CE00A4B1B68002B89
:1043300005D1084B01221A6000237B6002E04FF098
:10434000FF337B607B6818460C37BD465DF8047B05
:10435000704700BFA003002080B582B000AFEFF32C
:1043600005833B603B68002B03D06FF005037B6047
:1043700010E00B4B1B68012B09D1FFF7BFFF084B67
:1043800002221A6001F006FA00237B6002E04FF07F
:10439000FF337B607B6818460837BD4680BD00BF91
:1043A000A003002080B582B000AFEFF305833B602F
:1043B0003B68002B03D06FF005037B6013E001F036
:1043C000BFFD0346002B02D0022B03D007E00123E0
:1043D0007B6008E001F03EFA00237B6003E04FF0D1
:1043E000FF337B6000BF7B6818460837BD4680BD41
:1043F00080B582B000AFEFF305833B603B68002BD4
:1044000003D06FF005037B601FE001F099FD0346C8
:10441000002B02D0022B10D012E001237B6001F0B0
:1044200027FA0346012B0FD001F08AFD0346002B2B
:104430000AD14FF0FF337B6006E000237B6004E08D
:104440004FF0FF337B6000E000BF7B681846083701
:10445000BD4680BD80B58EB004AFF860B9607A60AB
:1044600000233B61EFF305837B617B69002B7ED1E9
:10447000FB68002B7BD080233B621823FB61002369
:104480007B624FF0FF33BB617B68002B45D07B68BC
:104490001B68002B02D07B681B687B627B689B6972
:1044A000002B02D07B689B69FB61FB69002B08D065
:1044B000FB69382B05D87B685B6803F00103002B90
:1044C00001D0002354E07B685B69002B03D07B683C
:1044D0005B699B083B627B689B68002B0ED07B6806
:1044E000DB68A72B0AD97B681B69002B06D07B6889
:1044F0005B69002B02D00123BB6110E07B689B68E5
:10450000002B0CD17B68DB68002B08D17B681B6912
:10451000002B04D10023BB6101E00023BB61BB6918
:10452000012B10D17B681B697A6892680292019313
:10453000FB690093BB683A6A796AF86800F08AFF01
:1045400003463B6113E0BB69002B10D13B6A9AB272
:1045500007F110030193FB690093BB68796AF8685F
:1045600000F0A8FF0346012B01D000233B613B690B
:1045700018462837BD4680BD80B584B000AF78604E
:10458000EFF30583BB60BB68002B03D06FF005031E
:10459000FB6007E00023FB607B68002B02D078689B
:1045A00001F0D4F8FB6818461037BD4680BD80B5D1
:1045B00088B000AF78600023FB61EFF30583BB6038
:1045C000BB68002B74D17B68002B03D07B685B68D1
:1045D000BB6101E00023BB61BB6903F00103002B59
:1045E00002D001237B6101E000237B61BB6903F002
:1045F0000803002B5CD14FF0FF333B617B68002B3D
:1046000015D07B689B68002B06D07B68DB684F2B3E
:1046100002D901233B610CE07B689B68002B08D129
:104620007B68DB68002B04D100233B6101E00023A1
:104630003B613B69012B12D17B69002B07D07B6862
:104640009B681946042000F0A3FAF86116E07B6825
:104650009B681946012000F09BFAF8610EE03B6967
:10466000002B0BD17B69002B04D0042000F078FADA
:10467000F86103E0012000F073FAF861FB69002B98
:104680000CD07B68002B03D07B681B68FB6001E0CB
:104690000023FB60F968F86900F07EFEFB69002BDF
:1046A00006D07B69002B03D0FB6943F00103FB615B
:1046B000FB6918462037BD4680BD80B586B000AF87
:1046C000786039607B6823F001033B617B6803F00D
:1046D0000103FB6000237B61EFF30583BB60BB68D4
:1046E000002B03D06FF005037B612CE03B69002BAE
:1046F00003D16FF003037B6125E0FB68002B11D031
:104700003968386900F085FA0346012B1BD03B68F5
:10471000002B03D06FF001037B6114E06FF0020304
:104720007B6110E03968386900F046FC0346012BD4
:1047300009D03B68002B03D06FF001037B6102E0DE
:104740006FF002037B617B6918461837BD4680BD58
:1047500080B586B000AF78607B6823F001033B61D1
:104760007B6803F00103FB6000237B61EFF30583AB
:10477000BB60BB68002B03D06FF005037B611FE0BB
:104780003B69002B03D16FF003037B6118E0FB68EA
:10479000002B09D0386900F016FA0346012B0FD020
:1047A0006FF002037B610BE00023002200213869D7
:1047B00000F058FA0346012B02D06FF002037B6130
:1047C0007B6918461837BD4680BD000080B485B0AF
:1047D00000AFF860B9607A60FB68074A1A60BB688E
:1047E000064A1A607B6880221A6000BF1437BD46F3
:1047F0005DF8047B704700BFA40300204C04002038
:1048000080B485B000AFF860B9607A60FB68074A91
:104810001A60BB68064A1A607B684FF480721A609F
:1048200000BF1437BD465DF8047B70474C0600207E
:10483000F406002080B483B000AF78607B6803F199
:1048400008027B685A607B684FF0FF329A607B6891
:1048500003F108027B68DA607B6803F108027B6879
:104860001A617B6800221A6000BF0C37BD465DF8F4
:10487000047B704780B483B000AF78607B6800220F
:104880001A6100BF0C37BD465DF8047B704780B4E9
:1048900085B000AF786039607B685B68FB603B681F
:1048A000FA685A60FB689A683B689A60FB689B6884
:1048B0003A685A60FB683A689A603B687A681A619D
:1048C0007B681B685A1C7B681A6000BF1437BD46A2
:1048D0005DF8047B704780B485B000AF78603960C4
:1048E0003B681B68BB60BB68B3F1FF3F03D17B68CB
:1048F0001B69FB600CE07B680833FB6002E0FB682F
:104900005B68FB60FB685B681B68BA689A42F6D21A
:10491000FB685A683B685A603B685B683A689A6013
:104920003B68FA689A60FB683A685A603B687A6844
:104930001A617B681B685A1C7B681A6000BF1437B9
:10494000BD465DF8047B704780B485B000AF7860E9
:104950007B681B69FB607B685B687A6892689A6019
:104960007B689B687A6852685A60FB685B687A6803
:104970009A4203D17B689A68FB685A607B68002280
:104980001A61FB681B685A1EFB681A60FB681B688B
:1049900018461437BD465DF8047B704780B584B077
:1049A00000AF786039607B68FB6001F0FBFFFB685B
:1049B0001A68FB68DB6BF968096C01FB03F31A44A6
:1049C000FB689A60FB6800229A63FB681A68FB68C0
:1049D0005A60FB681A68FB68DB6B013BF968096C7D
:1049E00001FB03F31A44FB68DA60FB68FF2283F8DB
:1049F0004420FB68FF2283F845203B68002B14D13C
:104A0000FB681B69002B1AD0FB681033184601F0B5
:104A1000FFF80346002B12D00C4B4FF080521A6067
:104A2000BFF34F8FBFF36F8F09E0FB681033184659
:104A3000FFF700FFFB6824331846FFF7FBFE01F089
:104A4000CBFF012318461037BD4680BD04ED00E0C2
:104A500080B588B002AFF860B9607A603B603B68AF
:104A60007B617B69002B0DD07B69012283F8462096
:104A700097F820207B69009313467A68B968F86834
:104A800000F031F87B6918461837BD4680BD80B507
:104A90008AB002AFF860B9601346FB71FB68BA6870
:104AA00002FB03F3FB61FB695033184602F034F854
:104AB000B861BB69002B11D0BB697B617B69503346
:104AC0007B61BB69002283F84620FA79BB690093B9
:104AD00013467A69B968F86800F005F8BB691846AA
:104AE0002037BD4680BD80B584B000AFF860B960A6
:104AF0007A60FB70BB68002B03D1BB69BA691A608E
:104B000002E0BB697A681A60BB69FA68DA63BB695C
:104B1000BA681A640121B869FFF740FFBB69FA78E7
:104B200083F84C2000BF1037BD4680BD80B582B0F1
:104B300000AF78607B68002B0ED07B6800229A6003
:104B40007B6800221A607B680022DA600023002262
:104B50000021786800F086F800BF0837BD4680BDA8
:104B600080B586B000AF0346FB7101237B61002353
:104B70003B61FB791A4639697869FFF788FFF8606D
:104B8000F868FFF7D3FFFB6818461837BD4680BDAD
:104B900080B588B002AF03463960FB7101237B61A9
:104BA00000233B61FB7900933B68002239697869F7
:104BB000FFF74EFFF860F868FFF7B8FFFB6818468C
:104BC0001837BD4680BD90B585B000AF78607B6872
:104BD000BB60BB689C6801F0A3F903469C4211D1FD
:104BE000BB68DB685A1EBB68DA60BB68DB68002BF9
:104BF00005D1002300220021B86800F033F801231A
:104C0000FB6001E00023FB60FB6818461437BD46DB
:104C100090BD90B585B000AF786039607B68BB60AF
:104C2000BB689C6801F07CF903469C4207D1BB68D5
:104C3000DB685A1CBB68DA600123FB600CE0396852
:104C4000B86800F0B9F9F860FB68002B04D0BB68C5
:104C5000DB685A1CBB68DA60FB6818461437BD462F
:104C600090BD000080B58AB000AFF860B9607A608E
:104C70003B6000237B62FB683B6201F093FE3B6A72
:104C80009A6B3B6ADB6B9A4202D33B68022B29D1B9
:104C90003A68B968386A00F06FFAF8613B6A5B6A93
:104CA000002B10D03B6A2433184600F0B1FF0346B6
:104CB000002B13D03F4B4FF080521A60BFF34F8F41
:104CC000BFF36F8F0AE0FB69002B07D0394B4FF021
:104CD00080521A60BFF34F8FBFF36F8F01F07CFEDD
:104CE000012363E07B68002B03D101F075FE0023F4
:104CF0005CE07B6A002B06D107F11403184600F034
:104D0000DDFF01237B6201F067FE00F0A3FD01F0EF
:104D100049FE3B6A93F844305BB2B3F1FF3F03D1E5
:104D20003B6A002283F844203B6A93F845305BB22B
:104D3000B3F1FF3F03D13B6A002283F8452001F025
:104D40004BFE3A1D07F114031146184600F0CCFF44
:104D50000346002B24D1386A00F006FB0346002BE3
:104D600018D03B6A10337A681146184600F01CFFD1
:104D7000386A00F091FA00F07BFD0346002B7FF4C7
:104D80007CAF0C4B4FF080521A60BFF34F8FBFF3D4
:104D90006F8F72E7386A00F07FFA00F069FD6CE708
:104DA000386A00F079FA00F063FD002318462837CE
:104DB000BD4680BD04ED00E080B58CB000AFF8606A
:104DC000B9607A603B60FB68BB62EFF311824FF021
:104DD000500383F31188BFF36F8FBFF34F8FBA6116
:104DE0007B61BB697B62BB6A9A6BBB6ADB6B9A4275
:104DF00002D33B68022B2FD1BB6A93F8453087F86A
:104E00002330BB6A9B6BFB613A68B968B86A00F0F3
:104E1000B3F997F92330B3F1FF3F12D1BB6A5B6A54
:104E2000002B16D0BB6A2433184600F0F1FE03466F
:104E3000002B0ED07B68002B0BD07B6801221A6000
:104E400007E097F823300133DBB25AB2BB6A83F82C
:104E500045200123FB6201E00023FB627B6A3B618A
:104E60003B6983F3118800BFFB6A18463037BD46A3
:104E700080BD000080B58AB000AFF860B9607A608C
:104E800000237B62FB683B6201F08CFD3B6A9B6BFD
:104E9000FB61FB69002B1FD0B968386A00F0D6F9B6
:104EA000FB695A1E3B6A9A633B6A1B69002B0FD051
:104EB0003B6A1033184600F0ABFE0346002B07D0C8
:104EC0003C4B4FF080521A60BFF34F8FBFF36F8F90
:104ED00001F082FD012369E07B68002B03D101F022
:104EE0007BFD002362E07B6A002B06D107F11403EF
:104EF000184600F0E3FE01237B6201F06DFD00F037
:104F0000A9FC01F04FFD3B6A93F844305BB2B3F16A
:104F1000FF3F03D13B6A002283F844203B6A93F8A9
:104F200045305BB2B3F1FF3F03D13B6A002283F807
:104F3000452001F051FD3A1D07F1140311461846B2
:104F400000F0D2FE0346002B23D1386A00F0F6F9B8
:104F50000346002B17D03B6A24337A681146184663
:104F600000F022FE386A00F097F900F081FC034659
:104F7000002B89D10F4B4FF080521A60BFF34F8F37
:104F8000BFF36F8F80E7386A00F086F900F070FC9D
:104F90007AE7386A00F080F900F06AFC386A00F0BD
:104FA000CDF90346002B3FF46FAF00231846283796
:104FB000BD4680BD04ED00E080B58AB000AF7860EA
:104FC000396000237B627B68FB6100233B6201F058
:104FD000E9FCFB699B6BBB61BB69002B24D0BB69FF
:104FE0005A1EFB699A63FB691B68002B04D101F010
:104FF000D9F80246FB699A60FB691B69002B0FD048
:10500000FB691033184600F003FE0346002B07D05F
:105010004C4B4FF080521A60BFF34F8FBFF36F8F2E
:1050200001F0DAFC012389E03B68002B03D101F099
:10503000D3FC002382E07B6A002B06D107F10C032E
:10504000184600F03BFE01237B6201F0C5FC00F036
:1050500001FC01F0A7FCFB6993F844305BB2B3F1AB
:10506000FF3F03D1FB69002283F84420FB6993F8DA
:1050700045305BB2B3F1FF3F03D1FB69002283F8F7
:10508000452001F0A9FC3A4607F10C0311461846E9
:1050900000F02AFE0346002B32D1F86900F04EF9E9
:1050A0000346002B26D0FB691B68002B09D101F0B9
:1050B00079FCFB699B68184600F060FF386201F0DC
:1050C0008BFCFB6924333A681146184600F06CFDEE
:1050D000F86900F0E1F800F0CBFB0346002B7FF409
:1050E00076AF184B4FF080521A60BFF34F8FBFF36B
:1050F0006F8F6CE7F86900F0CFF800F0B9FB66E756
:10510000F86900F0C9F800F0B3FBF86900F016F98F
:105110000346002B3FF45BAF3B6A002B0DD001F040
:1051200041FCF86900F010F87861FB699B687969C7
:10513000184600F0D7FF01F04FFC0023184628372F
:10514000BD4680BD04ED00E080B485B000AF78605E
:105150007B685B6A002B06D07B681B6B1B68C3F106
:105160003803FB6001E00023FB60FB68184614373E
:10517000BD465DF8047B704780B586B000AFF8602F
:10518000B9607A6000237B61FB689B6B3B61FB68C5
:105190001B6C002B0DD1FB681B68002B4DD1FB68ED
:1051A0009B68184600F052FF7861FB6800229A6005
:1051B00043E07B68002B19D1FB685868FB681B6CC7
:1051C0001A46B96801F0C2FEFB685A68FB681B6C9E
:1051D0001A44FB685A60FB685A68FB689B689A42ED
:1051E0002BD3FB681A68FB685A6026E0FB68D86816
:1051F000FB681B6C1A46B96801F0A8FEFB68DA6808
:10520000FB681B6C5B421A44FB68DA60FB68DA6877
:10521000FB681B689A4207D2FB689A68FB681B6CA4
:105220005B421A44FB68DA607B68022B05D13B695C
:10523000002B02D03B69013B3B613B695A1CFB6878
:105240009A637B6918461837BD4680BD80B582B029
:1052500000AF786039607B681B6C002B18D07B68CE
:10526000DA687B681B6C1A447B68DA607B68DA68F2
:105270007B689B689A4203D37B681A687B68DA6014
:105280007B68D9687B681B6C1A46386801F05EFE43
:1052900000BF0837BD4680BD80B584B000AF7860E0
:1052A00001F080FB7B6893F84530FB7311E07B686D
:1052B0005B6A002B12D07B682433184600F0A8FCF0
:1052C0000346002B01D000F055FDFB7B013BDBB218
:1052D000FB7397F90F30002BE9DC00E000BF7B681F
:1052E000FF2283F8452001F077FB01F05BFB7B6830
:1052F00093F84430BB7311E07B681B69002B12D01C
:105300007B681033184600F083FC0346002B01D065
:1053100000F030FDBB7B013BDBB2BB7397F90E3075
:10532000002BE9DC00E000BF7B68FF2283F844200B
:1053300001F052FB00BF1037BD4680BD80B584B080
:1053400000AF786001F02EFB7B689B6B002B02D1D5
:105350000123FB6001E00023FB6001F03DFBFB68E3
:1053600018461037BD4680BD80B584B000AF786068
:1053700001F018FB7B689A6B7B68DB6B9A4202D169
:105380000123FB6001E00023FB6001F025FBFB68CB
:1053900018461037BD4680BD80B485B000AF786038
:1053A00039600023FB6014E00F4AFB6852F8333089
:1053B000002B0BD10C49FB683A6841F833200A4AAC
:1053C000FB68DB0013447A685A6006E0FB6801332F
:1053D000FB60FB68072BE7D900BF00BF1437BD4651
:1053E0005DF8047B704700BFF40A002080B586B0EA
:1053F00000AFF860B9607A60FB687B6101F0D2FAB7
:105400007B6993F844305BB2B3F1FF3F03D17B6912
:10541000002283F844207B6993F845305BB2B3F1F6
:10542000FF3F03D17B69002283F8452001F0D4FAC5
:105430007B699B6B002B06D17B6924337A68B96842
:10544000184600F0C7FB7869FFF726FF00BF183742
:10545000BD4680BD80B58AB004AFF860B9607A609F
:105460003B60BB6A002B1ED07B6A002B1BD0BB6A43
:105470007B617B697A6A1A637B69022283F8A520C3
:10548000002303937B69029307F1100301933B6AA6
:1054900000933B687A68B968F86800F051F8786959
:1054A00000F0E4F801E000233B613B69184618373F
:1054B000BD4680BD80B58CB004AFF860B9603B607C
:1054C0001346FB80FB889B00184601F025FB7861A2
:1054D0007B69002B0ED0A82001F01EFBF861FB6950
:1054E000002B03D0FB697A691A6305E0786901F043
:1054F000ADFB01E00023FB61FB69002B17D0FB69CA
:10550000002283F8A520FA8800230393FB69029305
:10551000FB6A0193BB6A00933B68B968F86800F0C6
:105520000FF8F86900F0A2F80123BB6102E04FF028
:10553000FF33BB61BB6918462037BD4680BD000004
:1055400080B586B000AFF860B9607A603B60BB6A36
:10555000186B7B689B001A46A52101F073FCBB6A9F
:105560001A6B7B6803F18043013B9B0013443B6152
:105570003B6923F007033B61BB68002B1FD000236E
:105580007B6112E0BA687B6913441978BA6A7B6957
:10559000134434330A461A70BA687B6913441B7883
:1055A000002B06D07B6901337B617B690F2BE9D926
:1055B00000E000BFBB6A002283F8432003E0BB6A1F
:1055C000002283F834203B6A372B01D937233B6212
:1055D000BB6A3A6ADA62BB6A3A6ADA64BB6A002278
:1055E0001A65BB6A04331846FFF744F9BB6A1833DF
:1055F0001846FFF73FF9BB6ABA6A1A613B6AC3F102
:105600003802BB6A9A61BB6ABA6A5A62BB6A0022F4
:10561000C3F8A020BB6A002283F8A420BB6A5433DD
:105620004C220021184601F00DFCBB6A0C4A9A6519
:10563000BB6A0C4ADA65BB6A0B4A1A663A68F968B3
:10564000386901F009F90246BB6A1A607B6A002BCF
:1056500002D07B6ABA6A1A6000BF1837BD4680BDA7
:10566000804D0020E84D0020504E002080B582B0D3
:1056700000AF786001F096F92D4B1B6801332C4A7E
:1056800013602C4B1B68002B09D12A4A7B681360DE
:10569000274B1B68012B10D100F090FB0DE0264B2F
:1056A0001B68002B09D1234B1B68DA6A7B68DB6A15
:1056B0009A4202D81F4A7B681360204B1B68013353
:1056C0001E4A13601D4B1A687B685A647B68DA6A4D
:1056D0001B4B1B689A4203D97B68DB6A184A13602C
:1056E0007B68DA6A13469B0013449B00154A1A44F0
:1056F0007B68043319461046FFF7C9F801F06CF9CE
:105700000D4B1B68002B0ED00A4B1B68DA6A7B68B6
:10571000DB6A9A4207D20C4B4FF080521A60BFF3FB
:105720004F8FBFF36F8F00BF0837BD4680BD00BFEE
:1057300008100020340B002014100020241000203A
:1057400010100020380B002004ED00E080B584B07C
:1057500000AF78600023FB607B68002B08D000F06E
:1057600079F80021786800F031FD00F081F8F860E8
:10577000FB68002B07D1064B4FF080521A60BFF335
:105780004F8FBFF36F8F00BF1037BD4680BD00BF86
:1057900004ED00E080B58AB004AF0023FB60002375
:1057A000BB603A1D07F1080107F10C031846FFF72B
:1057B0000DF87968BB68FA680292019300230093A0
:1057C00000230A461B491C48FFF744FE03461B4AB8
:1057D00013601A4B1B68002B02D001237B6101E090
:1057E00000237B617B69012B02D100F043FD7861CE
:1057F0007B69012B1AD14FF0500383F31188BFF35B
:105800006F8FBFF34F8F3B6100BF0D4B1B6854334D
:105810000C4A13600C4B4FF0FF321A600B4B012205
:105820001A600B4B00221A6001F092F800BF183783
:10583000BD4680BD607000088D5D00082C10002002
:10584000340B002008010020281000201410002034
:105850000C10002080B400AF044B1B680133034AD6
:10586000136000BFBD465DF8047B70473010002018
:1058700080B584B000AF0023FB600023BB6001F063
:1058800091F8394B1B68013B374A1360364B1B6854
:10589000002B62D1354B1B68002B5ED02FE0344BC0
:1058A000DB68DB68FB60FB6818331846FFF74CF8D1
:1058B000FB6804331846FFF747F8FB68DA6A2D4B9C
:1058C0001B689A4203D9FB68DB6A2A4A1360FB68AB
:1058D000DA6A13469B0013449B00274A1A44FB686C
:1058E000043319461046FEF7D2FFFB68DA6A234BF1
:1058F0001B68DB6A9A4202D3214B01221A601C4BBF
:105900001B68002BCBD1FB68002B01D000F0E8FA1C
:105910001C4B1B687B607B68002B10D000F046F8A6
:105920000346002B02D0164B01221A607B68013B14
:105930007B607B68002BF1D1124B00221A60104B68
:105940001B68002B09D00123BB600F4B4FF0805226
:105950001A60BFF34F8FBFF36F8F01F03DF8BB6844
:1059600018461037BD4680BD3010002008100020BA
:10597000C80F002010100020380B0020340B00202E
:105980001C1000201810002004ED00E080B483B04B
:1059900000AF054B1B687B607B6818460C37BD4623
:1059A0005DF8047B704700BF0C10002080B586B006
:1059B00000AF00237B61464B1B68002B7ED1454B1B
:1059C0001B6801333B61434A3B6913603B69002B11
:1059D00010D1414B1B68FB60404B1B683E4A136073
:1059E0003E4AFB6813603E4B1B6801333C4A136020
:1059F00000F076FA3B4B1B683A699A4249D3364B22
:105A00001B681B68002B04D1364B4FF0FF321A6025
:105A10003FE0314B1B68DB68DB68BB60BB685B68E1
:105A20007B603A697B689A4203D22E4A7B68136096
:105A30002FE0BB6804331846FEF786FFBB689B6AFD
:105A4000002B04D0BB6818331846FEF77DFFBB68F7
:105A5000DA6A254B1B689A4203D9BB68DB6A224A83
:105A60001360BB68DA6A13469B0013449B001F4A0D
:105A70001A44BB68043319461046FEF708FFBB689A
:105A8000DA6A1B4B1B68DB6A9A42B8D301237B613D
:105A9000B5E7174B1B68DA6A144913469B00134499
:105AA0009B000B441B68012B01D901237B61114B27
:105AB0001B68002B07D001237B6104E00E4B1B68A1
:105AC00001330D4A13607B6918461837BD4680BD07
:105AD000301000200C100020C00F0020C40F002048
