:020000040800F2
:10000000000001204509000899080008A10800081F
:10001000A9080008B1080008B9080008000000009D
:10002000000000000000000000000000516900080E
:10003000C108000800000000616A0008CD40000807
:100040009509000895090008950900089509000818
:100050009509000895090008950900089509000808
:1000600095090008950900089509000895090008F8
:1000700095090008950900089509000895090008E8
:10008000950900089509000895090008000000007E
:1000900000000000000000000000000095090008BA
:1000A000950900080D090008950900089509000840
:1000B00095090008D1080008E5080008950900081E
:1000C0009509000895090008950900089509000898
:1000D000950900089509000895090008000000002E
:1000E000950900089509000895090008000000001E
:1000F000000000000000000000000000950900085A
:100100000000000095090008F9080008950900089A
:1001100000000000000000000000000000000000DF
:100120009509000895090008950900089509000837
:100130009509000800000000000000000000000019
:100140000000000000000000000000009509000809
:100150009509000895090008950900089509000807
:100160009509000895090008000000000000000043
:10017000000000000000000000000000000000007F
:1001800000000000950900080000000000000000C9
:0401900095090008C5
:1001A00010B5054C237833B9044B13B10448AFF3B1
:1001B00000800123237010BD140100200000000006
:1001C0006470000808B5034B1BB103490348AFF343
:1001D000008008BD000000001801002064700008C5
:1001E00053B94AB9002908BF00281CBF4FF0FF319E
:1001F0004FF0FF3000F06AB9ADF1080C6DE904CEA4
:1002000000F006F8DDF804E0DDE9022304B07047F1
:100210002DE9F047089D0C46002B4ED194468C45A5
:100220008646B2FA82F262D94AB1C2F12003914005
:1002300020FA03F30CFA02FC194300FA02FE4FEA1B
:100240001C471FFA8CF6B1FBF7F44FEA1E4307FB7D
:10025000141143EA014304FB06F199420AD91CEB4D
:10026000030304F1FF3080F01281994240F20F81C4
:10027000023C6344591A1FFA8EF3B1FBF7F007FBF7
:10028000101143EA014300FB06F69E420AD91CEB1B
:10029000030300F1FF3180F0FC809E4240F2F980C0
:1002A000634402389B1B40EA044000211DB1D34047
:1002B0000022C5E90032BDE8F0878B4205D90DB1B7
:1002C000C5E9000100210846F5E7B3FA83F10029EA
:1002D00046D1A34202D39042C0F0F080861A64EB6C
:1002E00003030120002DE6D0C5E90063E3E7002AFF
:1002F00040F09080A1EB0C044FEA1C481FFA8CF7E9
:100300000121B4FBF8F64FEA1E4308FB164443EA0A
:10031000044307FB06F0984208D91CEB030306F1DF
:10032000FF3402D2984200F2CD8026461C1A1FFAF2
:100330008EF3B4FBF8F008FB104443EA044300FBDF
:1003400007F79F4208D91CEB030300F1FF3402D2E8
:100350009F4200F2B0802046DB1B40EA0640A5E742
:10036000C1F120068B4022FA06F71F4320FA06FC53
:1003700004FA01F343EA0C03F44000FA01F8380CE4
:100380004FEA1349B4FBF0FE1FFA87FC00FB1E4442
:1003900049EA04440EFB0CF9A14502FA01F20AD91C
:1003A0003C190EF1FF3A80F08480A14540F2818033
:1003B000AEF1020E3C44A4EB09041FFA83F9B4FB2E
:1003C000F0F300FB134449EA044403FB0CFCA4458E
:1003D00007D93C1903F1FF3067D2A44565D9023B28
:1003E0003C4443EA0E40A0FB0293A4EB0C049C4265
:1003F000CE469C4651D34ED055B1B8EB0E0364EBBC
:100400000C0404FA06F6CB401E43CC40C5E9006458
:10041000002150E7C2F1200320FA03F10CFA02FC9C
:1004200024FA03F394400C434FEA1C4800FA02FEFE
:100430001FFA8CF7B3FBF8F008FB1031230C43EAEA
:10044000014300FB07F1994208D91CEB030300F1BB
:10045000FF362CD299422AD9023863445B1AA4B2DF
:10046000B3FBF8F108FB113344EA034401FB07F343
:10047000A34208D91CEB040401F1FF3613D2A342B6
:1004800011D902396444E41A41EA004139E70446CB
:10049000F0E6084606E7C845AED2B9EB020E63EBBC
:1004A000070C0138A8E73146EDE7034699E73046E7
:1004B000D4E7D6467FE7634402384DE70646234635
:1004C00008460FE7023E634430E700BF704700BFB5
:1004D00080B500AF01F070F800F012F800F070F88D
:1004E00000F00EFD01F008F800F03CFC03F008FEFF
:1004F00001F02AF800F0E4FC03F026FE00BFFDE75F
:1005000080B594B000AF07F12003302200211846D7
:1005100006F0C0FC07F10C0300221A605A609A60D2
:10052000DA601A610023BB60234B1B6C224A43F044
:1005300080531364204B1B6C03F08053BB60BB687B
:1005400000237B601D4B1B6823F440431B4A43F48C
:1005500000431360194B1B6803F440437B607B68C6
:1005600002233B620123FB6210233B630023BB6336
:1005700007F12003184601F0F9FA0346002B01D0D9
:1005800000F09EF80F23FB6000233B6100237B619A
:100590000023BB610023FB6107F10C030021184617
:1005A00001F05CFD0346002B01D000F089F800BF8C
:1005B0005037BD4680BD00BF00380240007000408B
:1005C00080B489B000AF0023FB61334B1B6B324A10
:1005D00043F001031363304B1B6B03F00103FB611A
:1005E000FB690023BB612C4B1B6B2B4A43F00203BE
:1005F0001363294B1B6B03F00203BB61BB69002330
:100600007B61254B1B6C244A43F002031364224B8D
:100610001B6C03F002037B617B6900233B611E4B73
:100620001B6C1D4A43F0040313641B4B1B6C03F04B
:1006300004033B613B690023FB60174B1B6C164AAC
:1006400043F008031364144B1B6C03F00803FB60B6
:10065000FB680023BB60104B1B6C0F4A43F48043C4
:1006600013640D4B1B6C03F48043BB60BB68002319
:100670007B60094B5B6C084A43F001035364064BF3
:100680005B6C03F001037B607B6800BF2437BD46D1
:100690005DF8047B704700BF0038024080B582B02F
:1006A00000AF78607B681B68044A934201D100F078
:1006B000A5FF00BF0837BD4680BD00BF0044014014
:1006C00080B400AF72B600BF00BFFDE780B582B056
:1006D00000AF00237B60124B5B6C114A43F48043F4
:1006E00053640F4B5B6C03F480437B607B68002397
:1006F0003B600B4B1B6C0A4A43F080531364084B5E
:100700001B6C03F080533B603B6800220F216FF0AD
:10071000010001F04BF800BF0837BD4680BD00BFA7
:100720000038024080B58AB000AF786007F114034A
:1007300000221A605A609A60DA601A617B681B684E
:10074000194A93422CD100233B61184B1B6C174A6A
:1007500043F480431364154B1B6C03F480433B61EB
:100760003B690023FB60114B1B6B104A43F00203F3
:1007700013630E4B1B6B03F00203FB60FB684FF42B
:1007800060437B610223BB610023FB6103233B6267
:1007900005237B6207F114031946054801F030F880
:1007A00000BF2837BD4680BD0038004000380240F9
:1007B0000004024080B58CB000AF78600023BB62BB
:1007C00000237B620023BB602E4B5B6C2D4A43F4FD
:1007D000003353642B4B5B6C03F40033BB60BB688A
:1007E00007F10C0207F110031146184601F002FE52
:1007F00001F0ECFDB862BB6A234AA2FB03239B0C09
:10080000013B7B62214B224A1A60204B40F2E732C7
:10081000DA601E4A7B6A53601C4B00221A611B4B34
:1008200000229A60194B00229A61184802F066FA79
:10083000034687F82F3097F82F30002B1BD1134831
:1008400002F0B6FA034687F82F3097F82F30002BC6
:1008500011D1192000F0C6FF7B680F2B08D80022A9
:100860007968192000F0A2FF0A4A7B68136002E051
:10087000012387F82F3097F82F3018463037BD46C0
:1008800080BD00BF0038024083DE1B4330010020E2
:1008900000440140B800002080B400AF00BFFDE775
:1008A00080B400AF00BFFDE780B400AF00BFFDE73C
:1008B00080B400AF00BFFDE780B400AF00BFFDE72C
:1008C00080B400AF00BFBD465DF8047B70470000F8
:1008D00080B500AF024802F0AFFD00BF80BD00BF91
:1008E0001C02002080B500AF024802F0A5FD00BF49
:1008F00080BD00BF6402002080B500AF024802F056
:100900009BFD00BF80BD00BFAC02002080B500AFE2
:10091000024802F091FD00BF80BD00BF3001002001
:1009200080B400AF064BD3F88830054A43F4700317
:10093000C2F8883000BFBD465DF8047B704700BF39
:1009400000ED00E0DFF834D0FFF7EAFF0C480D4976
:100950000D4A002302E0D458C4500433C4188C421A
:10096000F9D30A4A0A4C002301E013600432A24280
:10097000FBD306F0EDFAFFF7ABFD70470000012056
:100980000000002014010020347100081401002030
:10099000384E0020FEE780B58EB000AF786007F1DA
:1009A000240300221A605A609A60DA601A6107F123
:1009B000080300221A605A609A60DA601A615A616C
:1009C0009A617B685B687B620123BB620023FB62E8
:1009D00000233B637B681B6807F12402114618461D
:1009E00000F00EFF7B6818687B685B689BB2002292
:1009F000194601F0A1F87B68DB687B627B689B6825
:100A000007F124021146184600F0FAFE7B68986848
:100A10007B68DB689BB20022194601F08DF87B6889
:100A20005B697B620223BB6202233B637B685B6A78
:100A30007B637B681B6907F124021146184600F0AE
:100A4000DFFE7B689B697A68D2691A607B689B6964
:100A50000F225A607B689B6900229A617B689B69C0
:100A600000221A617B689B6900229A607B689B69FF
:100A700040F2E732DA607B689B69184602F0FAF9C7
:100A80006023BB606523FB6000233B610023BB61E7
:100A90007B6898697B681A6A07F10803194602F0B7
:100AA00057FE00BF3837BD4680BD80B582B000AF6D
:100AB00078600B46FB701346BB70BB7819467868AC
:100AC00000F0BEF8FB781946786800F00DF87B68F6
:100AD0009A697B681B6A1946104602F025FA00BF26
:100AE0000837BD4680BD000080B483B000AF786099
:100AF0000B46FB70FB78612B73D87B681B6A002B5D
:100B000019D1FB7807EE903AB8EE677ADFED4A6AC2
:100B1000C7EE267A9FED497A67EE877AB7EE007ABC
:100B200077EEC77A7B689B691B68FCEEE77A17EE65
:100B3000902A5A6379E07B681B6A042B19D1FB78F1
:100B400007EE903AB8EE677ADFED3B6AC7EE267A99
:100B50009FED3A7A67EE877AB7EE007A77EEC77A3A
:100B60007B689B691A68FCEEE77A17EE903A93630C
:100B70005BE07B681B6A082B19D1FB7807EE903A83
:100B8000B8EE677ADFED2C6AC7EE267A9FED2B7AF6
:100B900067EE877AB7EE007A77EEC77A7B689B6953
:100BA0001A68FCEEE77A17EE903AD3633DE0FB78E3
:100BB00007EE903AB8EE677ADFED1F6AC7EE267A45
:100BC0009FED1E7A67EE877AB7EE007A77EEC77AE6
:100BD0007B689B691A68FCEEE77A17EE903A13641B
:100BE00023E07B681B6A002B05D17B689B691B682F
:100BF00065225A6319E07B681B6A042B05D17B6868
:100C00009B691A68652393630FE07B681B6A082B56
:100C100005D17B689B691A686523D36305E07B680F
:100C20009B691A6865231364FFE700BF0C37BD4654
:100C30005DF8047B704700BF0000C24200C07944E9
:100C400080B582B000AF78600B46FB707B689A6914
:100C50007B681B6A1946104602F016FA7B68186812
:100C60007B685B689BB20022194600F065FF7B68D9
:100C700098687B68DB689BB20022194600F05CFF35
:100C800000BF7B681A687B685B689BB21946104698
:100C900000F03AFF0346002BF3D17B689A687B682B
:100CA000DB689BB21946104600F02EFF0346002B6E
:100CB000E7D1FB78002B12D17B6818687B685B68F2
:100CC0009BB20122194600F037FF7B6898687B6869
:100CD000DB689BB20022194600F02EFF14E0FB787F
:100CE000012B11D17B6818687B685B689BB200227E
:100CF000194600F021FF7B6898687B68DB689BB22F
:100D00000122194600F018FF7B689A697B681B6A0C
:100D10001946104602F008F900BF0837BD4680BDED
:100D200080B582B000AF78607B689A697B681B6A87
:100D30001946104602F0A8F97B6818687B685B6862
:100D40009BB20022194600F0F7FE7B6898687B682A
:100D5000DB689BB20022194600F0EEFE00BF0837A8
:100D6000BD4680BD80B500AF0348FFF714FE0348C1
:100D7000FFF711FE00BF80BD040000202C00002002
:100D800080B586B000AF7860494A07F10C0307CA06
:100D900003C31A800023FB75464B1B684FF0FF31DD
:100DA000184603F02AFB07F10C03184600F002F97D
:100DB000404B1B68184603F06BFB3B7B0F2B13DC8F
:100DC0000A2B60DB0A3B052B5DD801A252F823F009
:100DD000EF0D00080F0E0008270E00083F0E000858
:100DE000570E00086F0E0008FF2B4ED04BE0FB7D26
:100DF000002B4CD100221E212F48FFF756FE002267
:100E00001E212E48FFF751FE0123FB753FE0FB7DBD
:100E1000012B3ED100212848FFF712FF002127486F
:100E2000FFF70EFF35E0FB7D012B34D10121224875
:100E3000FFF706FF01212148FFF702FF2BE0FB7DB2
:100E4000012B2AD100211C48FFF7FAFE01211B4883
:100E5000FFF7F6FE21E0FB7D012B20D10121164892
:100E6000FFF7EEFE00211548FFF7EAFE17E0FB7DD5
:100E7000012B16D11048FFF753FF1048FFF750FF22
:100E80000023FB750DE000BF0CE000BF0AE000BFCF
:100E900008E000BF06E000BF04E000BF02E000BFC2
:100EA00000E000BFFF233B730A2003F005FA73E75D
:100EB0007C70000818020020040000202C00002094
:100EC00080B58AB000AF3B4624220021184605F0C9
:100ED000E1FF094B3B604FF400737B612823BB614A
:100EE0003B461A460021054803F054F9786200BFDA
:100EF0002837BD4680BD00BF88700008810D0008FE
:100F000080B586B000AF3B1D00221A605A609A601F
:100F1000DA601A614FF470437B600223BB600023E8
:100F2000FB6003233B6105237B613B1D19461C4885
:100F300000F066FC1B4B1C4A1A601A4B00225A60D8
:100F4000184B00229A60174B0022DA60154B0022E2
:100F50001A61144B00225A61124B00229A61114B04
:100F600000221A620F4B00225A620E4B00229A6234
:100F70000C4B0A22DA620B4801F06EFA094B1B682F
:100F80001A68084B1B6842F040021A60074803F0D9
:100F9000AEF90346064A136000BF1837BD4680BD50
:100FA00000040240C001002000380040FC7000082E
:100FB0001802002080B584B002AF7860074B1B7820
:100FC00019464FF0FF3300930A237A68044801F072
:100FD00010FC00BF0837BD4680BD00BF5400002094
:100FE000C001002080B485B000AF78607B68FB60F2
:100FF000FB6818461437BD465DF8047B7047000057
:1010000080B586B000AF7860A0233B727868FFF7A8
:10101000E9FF786107F1080301330822796918466E
:1010200005F0BCFFB0237B7407F108014FF0FF33DC
:101030000A22034801F099FA00BF1837BD4680BD67
:10104000C001002080B58CB000AF786007F11C03B0
:1010500000221A605A609A60DA601A6107F10C0384
:1010600000221A605A609A60DA607B689B68FB61B4
:1010700001233B6200237B620023BB627B681B6809
:1010800007F11C021146184600F0BAFB02233B622E
:1010900002237B620223BB627B68DB68FB617B68A7
:1010A0001B69FB627B685B6807F11C0211461846EE
:1010B00000F0A6FB7B689B697A6852691A607B68BE
:1010C0009B690F225A607B689B6900229A617B684A
:1010D0009B6900221A617B689B6900229A607B6889
:1010E0009B694FF6FF72DA607B689B69184602F0D5
:1010F0002FF80023FB6001233B6100237B61002369
:10110000BB617B689B6907F10C010022184602F065
:1011100083FA7B6893F91C3000220521184600F001
:1011200045FB7B6893F91C30184600F05BFB00BF61
:101130003037BD4680BD80B582B000AF78607B6837
:101140009B690021184602F05DF800BF0837BD46D4
:1011500080BD000080B485B000AF786039600023A6
:10116000FB604FF08143BB603B681A687B681B687B
:101170009A4206D33B681A687B681B68D31AFB60E7
:1011800008E03B681A687B681B68D31A03F57F4345
:10119000FF33FB60FB6807EE903AF8EE677A9FED4D
:1011A0000A7A27EE877AF0EE006AC7EE267AC7ED54
:1011B000027ABB6807EE903AB0EE670A1437BD4674
:1011C0005DF8047B704700BF287E0C3D80B586B07B
:1011D00000AFF860B9607A603B60FB681B7F012B51
:1011E00075D13B681B78002B2AD10021F86802F0EA
:1011F00071FB0246BB681A60FB681B68DA68FB6813
:101200001B6822F00202DA60FB681B681A6AFB683E
:101210001B6822F00A021A62FB681B681A6AFB68E4
:101220001B6842F002021A62FB681B68DA68FB68FE
:101230001B6842F00202DA603B6801221A7046E045
:101240000021F86802F046FB02467B681A60FB68E2
:101250001B68DA68FB681B6822F00202DA60FB6830
:101260001B681A6AFB681B6822F00A021A62FB6894
:101270001A68FB681B68126A1A62FB681B68DA68E6
:10128000FB681B6842F00202DA603B6800221A70B9
:101290007968B868FFF75EFF87ED050AD7ED057A34
:1012A000B0EE007AF4EEC77AF1EE10FA0ED4D7ED74
:1012B000057A9FED087AF4EEC77AF1EE10FA05DCB4
:1012C0007B6A97ED050A386A984700E000BF183737
:1012D000BD4680BD0000C84380B582B000AF7860D5
:1012E0007B6818687B689B689BB20122194600F0F6
:1012F00023FC00BF0837BD4680BD80B582B000AF7B
:1013000078607B6818687B689B689BB200221946EE
:1013100000F012FC00BF0837BD4680BD80B485B028
:1013200000AF78607B681B01FB6000E000BFFB68DA
:101330005A1EFA60002BF9D100BF00BF1437BD461A
:101340005DF8047B7047000080B586B000AF786020
:1013500087ED000A7B68FB603B683B6100237B6193
:101360000B4B186807F10C010023002203F040F931
:101370007B69002B07D0074B4FF080521A60BFF3F8
:101380004F8FBFF36F8F00BF1837BD4680BD00BFC2
:10139000F402002004ED00E080B584B002AF786074
:1013A0007B681B68184A93420AD1184B01930123AA
:1013B0000093174B174A18497868FFF707FF1EE09C
:1013C0007B681B68154A93420AD1104B0193022394
:1013D0000093134B134A14497868FFF7F7FE0EE0A9
:1013E0007B681B68114A934209D1084B0193032380
:1013F00000930F4B0F4A10497868FFF7E7FE00BFD4
:101400000837BD4680BD00BF0004004049130008F6
:1014100010030020FC020020F80200200008004019
:10142000110300200403002000030020000C0040F2
:10143000120300200C0300200803002080B582B0B6
:1014400000AF78601248FFF747FF0A20FFF766FFFA
:101450000F48FFF752FF282002F02EFF0D48FFF73C
:101460003BFF0A20FFF75AFF0A48FFF746FF2820F4
:1014700002F022FF0848FFF72FFF1420FFF74EFF6E
:101480000548FFF73AFF282002F016FF00BFD9E712
:1014900058000020780000209800002080B584B01B
:1014A00000AF786007F1080300221A605A6032200A
:1014B00002F002FF0E4B186807F10801002300221A
:1014C00003F0F6F80346002BF1D10A4B1B684FF0EE
:1014D000FF31184602F091FF07F108031846FFF7A5
:1014E0008FFD044B1B68184602F0D2FFDFE700BFF8
:1014F000F40200201802002080B500AF0D4A082138
:101500000A2003F002F803460B4A13600B48FFF76A
:1015100099FD0B48FFF796FD0A48FFF793FD074832
:10152000FFF709FE0648FFF706FE0648FFF703FE31
:1015300000BF80BD0C710008F4020020580000209C
:10154000780000209800002080B592B000AF07F12D
:10155000240324220021184605F09CFC124B7B62D8
:101560004FF40073BB630823FB633B462422002136
:10157000184605F08FFC0D4B3B604FF400737B6108
:101580002823BB613B461A460021094802F002FEAF
:1015900007F124031A460021064802F0FBFD00BFB4
:1015A0004837BD4680BD00BFAC700008BC70000865
:1015B0003D1400089D14000880B500AF0E4B1B6859
:1015C0000D4A43F4007313600B4B1B680A4A43F443
:1015D00080631360084B1B68074A43F480731360F1
:1015E000032000F0D8F80F20FFF7E4F8FFF76EF8BB
:1015F0000023184680BD00BF003C024080B400AF0D
:10160000064B1B781A46064B1B681344044A1360AA
:1016100000BFBD465DF8047B704700BFBC000020E2
:101620001403002080B400AF034B1B681846BD466E
:101630005DF8047B704700BF1403002080B485B0C0
:1016400000AF78607B6803F00703FB600C4BDB683E
:10165000BB60BA684FF6FF031340BB60FB681A0219
:10166000BB68134343F0BF6343F40033BB60044AD9
:10167000BB68D36000BF1437BD465DF8047B70477C
:1016800000ED00E080B400AF044BDB681B0A03F000
:1016900007031846BD465DF8047B704700ED00E087
:1016A00080B483B000AF0346FB7197F90730002B7D
:1016B0000BDBFB7903F01F02074997F907305B0941
:1016C000012000FA02F241F8232000BF0C37BD468A
:1016D0005DF8047B704700BF00E100E080B483B098
:1016E00000AF03463960FB7197F90730002B0ADB26
:1016F0003B68DAB20C4997F907301201D2B20B44B9
:1017000083F800230AE03B68DAB20849FB7903F06A
:101710000F03043B1201D2B20B441A7600BF0C3700
:10172000BD465DF8047B704700E100E000ED00E09D
:1017300080B489B000AFF860B9607A60FB6803F0EC
:101740000703FB61FB69C3F10703042B28BF0423D4
:10175000BB61FB690433062B02D9FB69033B00E044
:1017600000237B614FF0FF32BB6902FA03F3DA43D7
:10177000BB681A407B699A404FF0FF317B6901FAE0
:1017800003F3D9437B680B40134318462437BD4607
:101790005DF8047B704780B582B000AF78607868F0
:1017A000FFF74CFF00BF0837BD4680BD80B586B04F
:1017B00000AF0346B9607A60FB7300237B61FFF7DB
:1017C00061FF78617A68B9687869FFF7B1FF02460E
:1017D00097F90F3011461846FFF780FF00BF183702
:1017E000BD4680BD80B582B000AF0346FB7197F95E
:1017F00007301846FFF754FF00BF0837BD4680BDCD
:1018000080B489B000AF7860396000237B61002329
:101810003B610023BB610023FB6159E10122FB69AD
:1018200002FA03F37B613B681B687A6913403B61F2
:101830003A697B699A4240F048813B685B6803F0F3
:101840000303012B05D03B685B6803F00303022B05
:1018500030D17B689B68BB61FB695B00032202FAA5
:1018600003F3DB43BA691340BB613B68DA68FB6989
:101870005B0002FA03F3BA691343BB617B68BA6980
:101880009A607B685B68BB610122FB6902FA03F323
:10189000DB43BA691340BB613B685B681B0903F01B
:1018A0000102FB6902FA03F3BA691343BB617B6867
:1018B000BA695A603B685B6803F00303032B17D0D7
:1018C0007B68DB68BB61FB695B00032202FA03F300
:1018D000DB43BA691340BB613B689A68FB695B00F4
:1018E00002FA03F3BA691343BB617B68BA69DA6031
:1018F0003B685B6803F00303022B23D1FB69DA0822
:101900007B68083253F82230BB61FB6903F00703A0
:101910009B000F2202FA03F3DB43BA691340BB6159
:101920003B681A69FB6903F007039B0002FA03F3A3
:10193000BA691343BB61FB69DA087B680832B9698D
:1019400043F822107B681B68BB61FB695B000322C4
:1019500002FA03F3DB43BA691340BB613B685B687F
:1019600003F00302FB695B0002FA03F3BA69134355
:10197000BB617B68BA691A603B685B6803F44033FB
:10198000002B00F0A2800023FB60574B5B6C564A93
:1019900043F480435364544B5B6C03F48043FB601B
:1019A000FB68524AFB699B08023352F82330BB6143
:1019B000FB6903F003039B000F2202FA03F3DB43EE
:1019C000BA691340BB617B68494A934219D07B686E
:1019D000484A934213D07B68474A93420DD07B68B4
:1019E000464A934207D07B68454A934201D104237B
:1019F00008E0072306E0032304E0022302E00123BA
:101A000000E00023FA6902F0030292009340BA69F1
:101A10001343BB613549FB699B080233BA6941F83E
:101A20002320384B9B68BB613B69DB43BA69134099
:101A3000BB613B685B6803F48013002B03D0BA6979
:101A40003B691343BB612F4ABB6993602D4BDB6835
:101A5000BB613B69DB43BA691340BB613B685B68B0
:101A600003F40013002B03D0BA693B691343BB6135
:101A7000244ABB69D360234B5B68BB613B69DB4392
:101A8000BA691340BB613B685B6803F40033002B09
:101A900003D0BA693B691343BB611A4ABB695360FF
:101AA000184B1B68BB613B69DB43BA691340BB61E0
:101AB0003B685B6803F48033002B03D0BA693B6951
:101AC0001343BB610F4ABB691360FB690133FB61C0
:101AD000FB690F2B7FF6A2AE00BF00BF2437BD46C7
:101AE0005DF8047B704700BF0038024000380140B9
:101AF000000002400004024000080240000C0240C6
:101B000000100240003C014080B485B000AF786016
:101B10000B467B807B681A697B881340002B02D0C0
:101B20000123FB7301E00023FB73FB7B1846143792
:101B3000BD465DF8047B704780B483B000AF786029
:101B40000B467B8013467B707B78002B03D07A8812
:101B50007B689A6103E07B881A047B689A6100BF06
:101B60000C37BD465DF8047B7047000080B586B039
:101B700000AF78607B68002B01D1012367E27B68AE
:101B80001B6803F00103002B75D0884B9B6803F0A2
:101B90000C03042B0CD0854B9B6803F00C03082B23
:101BA00012D1824B5B6803F48003B3F5800F0BD135
:101BB0007E4B1B6803F40033002B5BD07B685B68B3
:101BC000002B57D1012342E27B685B68B3F5803F6D
:101BD00006D1764B1B68754A43F4803313601DE0D1
:101BE0007B685B68B3F5A02F0CD1704B1B686F4A04
:101BF00043F4802313606D4B1B686C4A43F48033BD
:101C000013600BE0694B1B68684A23F48033136050
:101C1000664B1B68654A23F4802313607B685B680E
:101C2000002B13D0FFF7FEFC386108E0FFF7FAFC49
:101C300002463B69D31A642B01D9032307E25B4BAD
:101C40001B6803F40033002BF0D014E0FFF7EAFC2C
:101C5000386108E0FFF7E6FC02463B69D31A642BC3
:101C600001D90323F3E1514B1B6803F40033002B2C
:101C7000F0D100E000BF7B681B6803F00203002B7B
:101C800063D04A4B9B6803F00C03002B0BD0474BEF
:101C90009B6803F00C03082B1CD1444B5B6803F4D6
:101CA0008003002B16D1414B1B6803F00203002B6D
:101CB00005D07B68DB68012B01D00123C7E13B4BDA
:101CC0001B6823F0F8027B681B69DB00374913436C
:101CD0000B603AE07B68DB68002B20D0344B01229C
:101CE0001A60FFF79FFC386108E0FFF79BFC024693
:101CF0003B69D31A022B01D90323A8E12B4B1B68A4
:101D000003F00203002BF0D0284B1B6823F0F802ED
:101D10007B681B69DB00254913430B6015E0244BEE
:101D200000221A60FFF77EFC386108E0FFF77AFCBA
:101D300002463B69D31A022B01D9032387E11B4BCF
:101D40001B6803F00203002BF0D17B681B6803F0D3
:101D50000803002B36D07B685B69002B16D0154B2F
:101D600001221A60FFF75EFC386108E0FFF75AFCB9
:101D700002463B69D31A022B01D9032367E10B4BBF
:101D80005B6F03F00203002BF0D01BE0094B002235
:101D90001A60FFF747FC38610EE0FFF743FC02468C
:101DA0003B69D31A022B07D9032350E100380240C4
:101DB00000004742800E4742884B5B6F03F00203EE
:101DC000002BEAD17B681B6803F00403002B00F0B2
:101DD00097800023FB75814B1B6C03F08053002B15
:101DE0000FD10023BB607D4B1B6C7C4A43F08053BA
:101DF00013647A4B1B6C03F08053BB60BB680123F8
:101E0000FB75774B1B6803F48073002B18D1744B60
:101E10001B68734A43F480731360FFF703FC386157
:101E200008E0FFF7FFFB02463B69D31A022B01D9FA
:101E300003230CE16A4B1B6803F48073002BF0D082
:101E40007B689B68012B06D1644B1B6F634A43F090
:101E5000010313671CE07B689B68052B0CD15F4B6B
:101E60001B6F5E4A43F0040313675C4B1B6F5B4AB6
:101E700043F0010313670BE0584B1B6F574A23F0E5
:101E800001031367554B1B6F544A23F00403136778
:101E90007B689B68002B15D0FFF7C4FB38610AE014
:101EA000FFF7C0FB02463B69D31A41F288329342E6
:101EB00001D90323CBE0494B1B6F03F00203002B36
:101EC000EED014E0FFF7AEFB38610AE0FFF7AAFBA3
:101ED00002463B69D31A41F28832934201D9032367
:101EE000B5E03E4B1B6F03F00203002BEED1FB7DF0
:101EF000012B05D1394B1B6C384A23F080531364F6
:101F00007B689B69002B00F0A180344B9B6803F039
:101F10000C03082B5CD07B689B69022B41D1314BB1
:101F200000221A60FFF77EFB386108E0FFF77AFBBA
:101F300002463B69D31A022B01D9032387E0274BC2
:101F40001B6803F00073002BF0D17B68DA697B68B3
:101F50001B6A1A437B685B6A9B011A437B689B6A16
:101F60005B08013B1B041A437B68DB6A1B061B49A9
:101F700013434B601B4B01221A60FFF753FB386180
:101F800008E0FFF74FFB02463B69D31A022B01D949
:101F900003235CE0114B1B6803F00073002BF0D0AF
:101FA00054E0104B00221A60FFF73CFB386108E058
:101FB000FFF738FB02463B69D31A022B01D90323F2
:101FC00045E0064B1B6803F00073002BF0D13DE0A9
:101FD0007B689B69012B07D1012338E00038024060
:101FE00000700040600047421B4B5B68FB607B68F1
:101FF0009B69012B28D0FB6803F480027B68DB69B6
:102000009A4221D1FB6803F03F027B681B6A9A4227
:102010001AD1FA6847F6C07313407A68526A92017F
:10202000934211D1FB6803F440327B689B6A5B08E2
:10203000013B1B049A4207D1FB6803F070627B6886
:10204000DB6A1B069A4201D0012300E000231846F8
:102050001837BD4680BD00BF0038024080B584B04F
:1020600000AF786039607B68002B01D10123CCE0A0
:10207000684B1B6803F007033A689A420CD9654B1A
:102080003A68D2B21A70634B1B6803F007033A68D0
:102090009A4201D00123B8E07B681B6803F0020379
:1020A000002B20D07B681B6803F00403002B05D0B5
:1020B000594B9B68584A43F4E05393607B681B6814
:1020C00003F00803002B05D0534B9B68524A43F49E
:1020D00060439360504B9B6823F0F0027B689B68E1
:1020E0004D4913438B607B681B6803F00103002B91
:1020F00044D07B685B68012B07D1474B1B6803F416
:102100000033002B19D101237FE07B685B68022B31
:1021100003D07B685B68032B07D13F4B1B6803F040
:102120000073002B09D101236FE03B4B1B6803F0C8
:102130000203002B01D1012367E0374B9B6823F09A
:1021400003027B685B68344913438B60FFF76AFACC
:10215000F8600AE0FFF766FA0246FB68D31A41F21C
:102160008832934201D903234FE02B4B9B6803F045
:102170000C027B685B689B009A42EBD1254B1B6885
:1021800003F007033A689A420CD2224B3A68D2B263
:102190001A70204B1B6803F007033A689A4201D07B
:1021A000012332E07B681B6803F00403002B08D096
:1021B000194B9B6823F4E0527B68DB681649134394
:1021C0008B607B681B6803F00803002B09D0124B5F
:1021D0009B6823F460427B681B69DB000E49134354
:1021E0008B6000F021F802460B4B9B681B0903F043
:1021F0000F030A49CB5C22FA03F3094A1360094B27
:102200001B681846FEF7D6FA002318461037BD465D
:1022100080BD00BF003C024000380240E47000086E
:1022200000000020B80000202DE9B04F90B000AFB2
:1022300000237B630023FB6300233B630023BB631A
:10224000594B9B6803F00C03082B0DD0082B00F2B0
:10225000A180002B02D0042B03D09BE0534BBB6327
:102260009BE0534BBB6398E04F4B5B6803F03F032D
:102270007B634D4B5B6803F48003002B28D04A4BF3
:102280005B689B0900223B627A623B6AC3F30800E9
:102290000021474B03FB01F2002300FB03F313442F
:1022A000434AA0FB0212FA620A46BA62FA6A13446F
:1022B000FB627B6B0022BB61FA61D7E90623D7E999
:1022C0000A01FDF78DFF02460B461346FB6353E000
:1022D000354B5B689B0900223B617A613B69C3F324
:1022E000080A4FF0000B52465B464FF000004FF0DB
:1022F0000001590141EAD261500102460B46B2EB9E
:102300000A0863EB0B094FF000024FF000034FEA9D
:10231000891343EA98634FEA8812B2EB080463EB2F
:1023200009054FF000024FF00003EB0043EA54733D
:10233000E20014461D4614EB0A033B6045EB0B0319
:102340007B604FF000024FF00003D7E900452946BB
:102350008B02214643EA915321468A0210461946D0
:102360007B6B0022BB60FA60D7E90223FDF738FFE0
:1023700002460B461346FB630B4B5B681B0C03F0DA
:10238000030301335B003B63FA6B3B6BB2FBF3F37C
:10239000BB6302E0054BBB6300BFBB6B1846403715
:1023A000BD46BDE8B08F00BF003802400024F400F5
:1023B00040787D0180B400AF034B1B681846BD46D2
:1023C0005DF8047B704700BF0000002080B500AFBF
:1023D000FFF7F0FF0246054B9B685B0B03F007031A
:1023E0000349CB5C22FA03F3184680BD0038024053
:1023F000F470000880B483B000AF786039607B6807
:102400000F221A60124B9B6803F003027B685A602C
:102410000F4B9B6803F0F0027B689A600C4B9B6843
:1024200003F4E0527B68DA60094B9B68DB0803F435
:10243000E0527B681A61074B1B6803F007023B6898
:102440001A6000BF0C37BD465DF8047B704700BFC3
:1024500000380240003C024080B582B000AF786096
:102460007B68002B01D101237BE07B685B6A002B3A
:1024700008D17B685B68B3F5827F09D07B68002256
:10248000DA6105E07B6800221A617B6800225A61EC
:102490007B6800229A627B6893F85130DBB2002B94
:1024A00006D17B68002283F850207868FEF73AF95D
:1024B0007B68022283F851207B681B681A687B685E
:1024C0001B6822F040021A607B685B6803F482722A
:1024D0007B689B6803F404431A437B68DB6803F45E
:1024E00000631A437B681B6903F002031A437B688D
:1024F0005B6903F001031A437B689B6903F4007373
:102500001A437B68DB6903F038031A437B681B6A54
:1025100003F0800342EA03017B689B6A03F40052E4
:102520007B681B680A431A607B689B691B0C03F07D
:1025300004017B685B6A03F010027B681B680A4336
:102540005A607B681B68DA697B681B6822F400624A
:10255000DA617B6800225A657B68012283F851208A
:10256000002318460837BD4680BD80B588B000AF4F
:10257000F860B9603B601346FB80FFF753F8F861E1
:10258000FB887B83FB6893F85130DBB2012B01D0D1
:1025900002232AE1BB68002B02D0FB88002B01D16B
:1025A000012322E1FB6893F85030012B01D1022373
:1025B0001BE1FB68012283F85020FB68032283F8AB
:1025C0005120FB6800225A65FB68BA681A63FB68F1
:1025D000FA889A86FB68FA88DA86FB6800229A6392
:1025E000FB6800229A87FB680022DA87FB680022DA
:1025F0005A64FB6800221A64FB689B68B3F5004FBD
:102600000FD1FB681B681A68FB681B6822F0400248
:102610001A60FB681B681A68FB681B6842F48042FA
:102620001A60FB681B681B6803F04003402B07D04F
:10263000FB681B681A68FB681B6842F040021A605E
:10264000FB68DB68B3F5006F52D1FB685B68002B59
:1026500002D07B8B012B45D1FB681B6B1A88FB6872
:102660001B68DA60FB681B6B9A1CFB681A63FB68CB
:10267000DB8E9BB2013B9AB2FB68DA8632E0FB68E4
:102680001B689B6803F00203022B12D1FB681B6BD3
:102690001A88FB681B68DA60FB681B6B9A1CFB6876
:1026A0001A63FB68DB8E9BB2013B9AB2FB68DA8649
:1026B00018E0FEF7B7FF0246FB69D31A3A689A4260
:1026C00003D83B68B3F1FF3F02D13B68002B09D12F
:1026D000FB68012283F85120FB68002283F8502018
:1026E000032382E0FB68DB8E9BB2002BC7D153E053
:1026F000FB685B68002B02D07B8B012B47D1FB680A
:102700001A6BFB681B680C3312781A70FB681B6B22
:102710005A1CFB681A63FB68DB8E9BB2013B9AB2C2
:10272000FB68DA8633E0FB681B689B6803F00203F2
:10273000022B13D1FB681A6BFB681B680C331278F1
:102740001A70FB681B6B5A1CFB681A63FB68DB8EF4
:102750009BB2013B9AB2FB68DA8618E0FEF762FF93
:102760000246FB69D31A3A689A4203D83B68B3F130
:10277000FF3F02D13B68002B09D1FB68012283F89F
:102780005120FB68002283F8502003232DE0FB68D2
:10279000DB8E9BB2002BC6D1FA693968F86800F06D
:1027A00059FA0346002B02D0FB6820225A65FB68C9
:1027B0009B68002B0AD100237B61FB681B68DB68E8
:1027C0007B61FB681B689B687B617B69FB680122FE
:1027D00083F85120FB68002283F85020FB685B6D72
:1027E000002B01D0012300E0002318462037BD460E
:1027F00080BD80B58AB000AFF860B9607A607B8038
:1028000001237B62FEF70EFF3862FB6893F85130BC
:10281000FB77FB685B68BB617B88FB82FB7F012BDE
:102820000CD0BB69B3F5827F06D1FB689B68002B97
:1028300002D1FB7F042B01D002237FE1BB68002B78
:1028400005D07B68002B02D07B88002B01D10123AF
:1028500074E1FB6893F85030012B01D102236DE144
:10286000FB68012283F85020FB6893F85130DBB2FB
:10287000042B03D0FB68052283F85120FB6800225B
:102880005A65FB687A689A63FB687A88DA87FB681E
:102890007A889A87FB68BA681A63FB687A88DA864E
:1028A000FB687A889A86FB6800221A64FB6800221B
:1028B0005A64FB681B681B6803F04003402B07D079
:1028C000FB681B681A68FB681B6842F040021A60CC
:1028D000FB68DB68B3F5006F7ED1FB685B68002B9B
:1028E00002D0FB8A012B6CD1FB681B6B1A88FB683A
:1028F0001B68DA60FB681B6B9A1CFB681A63FB6839
:10290000DB8E9BB2013B9AB2FB68DA8659E0FB682A
:102910001B689B6803F00203022B1BD1FB68DB8E54
:102920009BB2002B16D07B6A012B13D1FB681B6B6B
:102930001A88FB681B68DA60FB681B6B9A1CFB68D3
:102940001A63FB68DB8E9BB2013B9AB2FB68DA86A6
:1029500000237B62FB681B689B6803F00103012B6B
:1029600019D1FB68DB8F9BB2002B14D0FB681B686E
:10297000DA68FB689B6B92B21A80FB689B6B9A1CAF
:10298000FB689A63FB68DB8F9BB2013B9AB2FB68E2
:10299000DA8701237B62FEF745FE02463B6AD31AC3
:1029A0003A6B9A420DD83B6BB3F1FF3F09D0FB68FD
:1029B000012283F85120FB68002283F85020032372
:1029C000BCE0FB68DB8E9BB2002BA0D1FB68DB8FE9
:1029D0009BB2002B9BD182E0FB685B68002B02D08E
:1029E000FB8A012B71D1FB681A6BFB681B680C33E7
:1029F00012781A70FB681B6B5A1CFB681A63FB6821
:102A0000DB8E9BB2013B9AB2FB68DA865DE0FB6825
:102A10001B689B6803F00203022B1CD1FB68DB8E52
:102A20009BB2002B17D07B6A012B14D1FB681A6B69
:102A3000FB681B680C3312781A70FB681B6B5A1CFE
:102A4000FB681A63FB68DB8E9BB2013B9AB2FB68A2
:102A5000DA8600237B62FB681B689B6803F0010336
:102A6000012B19D1FB68DB8F9BB2002B14D0FB68C4
:102A70001B68DA68FB689B6BD2B21A70FB689B6BB1
:102A80005A1CFB689A63FB68DB8F9BB2013B9AB2CE
:102A9000FB68DA8701237B62FEF7C4FD02463B6ACE
:102AA000D31A3A6B9A4203D83B6BB3F1FF3F02D182
:102AB0003B6B002B09D1FB68012283F85120FB6896
:102AC000002283F85020032338E0FB68DB8E9BB2A2
:102AD000002B9CD1FB68DB8F9BB2002B97D13A6A0D
:102AE000396BF86800F0B6F80346002B08D0FB6895
:102AF00020225A65FB68002283F8502001231DE044
:102B0000FB689B68002B0AD100233B61FB681B68B4
:102B1000DB683B61FB681B689B683B613B69FB684A
:102B2000012283F85120FB68002283F85020FB68C3
:102B30005B6D002B01D0012300E0002318462837ED
:102B4000BD4680BD80B588B000AFF860B9603B601D
:102B50001346FB71FEF766FD0246BB6A9B1A3A6894
:102B60001344FB61FEF75EFDB861394B1B685B01E6
:102B70001B0DFA6902FB03F37B6154E03B68B3F180
:102B8000FF3F50D0FEF74EFD0246BB69D31AFA69EB
:102B90009A4202D9FB69002B3DD1FB681B685A6839
:102BA000FB681B6822F0E0025A60FB685B68B3F5C3
:102BB000827F11D1FB689B68B3F5004F04D0FB689E
:102BC0009B68B3F5806F07D1FB681B681A68FB68C8
:102BD0001B6822F040021A60FB689B6AB3F5005F35
:102BE0000FD1FB681B681A68FB681B6822F400524F
:102BF0001A60FB681B681A68FB681B6842F4005285
:102C00001A60FB68012283F85120FB68002283F8D8
:102C10005020032317E07B69002B01D10023FB61C7
:102C20007B69013B7B61FB681B689A68BB6813404A
:102C3000BA689A420CBF01230023DBB21A46FB7923
:102C40009A429BD1002318462037BD4680BD00BF65
:102C50000000002080B588B002AFF860B9607A60EB
:102C60007B680093BB6801220221F868FFF76AFFC6
:102C70000346002B07D0FB685B6D43F02002FB6826
:102C80005A65032332E01B4B1B681B4AA2FB03233C
:102C90005B0D4FF47A7202FB03F37B61FB685B68A8
:102CA000B3F5827F12D17B680093BB68002280213C
:102CB000F868FFF747FF0346002B16D0FB685B6DF3
:102CC00043F02002FB685A6503230FE07B69002B69
:102CD0000AD07B69013B7B61FB681B689B6803F042
:102CE0008003802BF2D000E000BF00231846183785
:102CF000BD4680BD00000020819F5E1680B582B079
:102D000000AF78607B68002B01D1012341E07B6834
:102D100093F83D30DBB2002B06D17B68002283F8AC
:102D20003C20786800F039F87B68022283F83D2067
:102D30007B681A687B6804331946104600F02CFE45
:102D40007B68012283F846207B68012283F83E20BD
:102D50007B68012283F83F207B68012283F84020B2
:102D60007B68012283F841207B68012283F842209E
:102D70007B68012283F843207B68012283F844208A
:102D80007B68012283F845207B68012283F83D207F
:102D9000002318460837BD4680BD80B483B000AF1D
:102DA000786000BF0C37BD465DF8047B70470000BB
:102DB00080B485B000AF78607B6893F83D30DBB2BB
:102DC000012B01D0012344E07B68022283F83D20DF
:102DD0007B681B68DA687B681B6842F00102DA6076
:102DE0007B681B681E4A934218D07B681B68B3F14E
:102DF000804F13D07B681B681A4A93420ED07B68C1
:102E00001B68194A934209D07B681B68174A934292
:102E100004D07B681B68164A934211D17B681B68FB
:102E20009B6803F00703FB60FB68062B10D07B68F0
:102E30001B681A687B681B6842F001021A6007E091
:102E40007B681B681A687B681B6842F001021A6085
:102E5000002318461437BD465DF8047B704700BF59
:102E6000000001400004004000080040000C004049
:102E70000040014080B582B000AF78607B68002BD5
:102E800001D1012341E07B6893F83D30DBB2002B98
:102E900006D17B68002283F83C20786800F039F87E
:102EA0007B68022283F83D207B681A687B680433C4
:102EB0001946104600F070FD7B68012283F8462019
:102EC0007B68012283F83E207B68012283F83F2043
:102ED0007B68012283F840207B68012283F841202F
:102EE0007B68012283F842207B68012283F843201B
:102EF0007B68012283F844207B68012283F8452007
:102F00007B68012283F83D20002318460837BD4620
:102F100080BD80B483B000AF786000BF0C37BD4681
:102F20005DF8047B7047000080B584B000AF786026
:102F300039603B68002B09D17B6893F83E30DBB2E7
:102F4000012B14BF01230023DBB222E03B68042BDA
:102F500009D17B6893F83F30DBB2012B14BF01230A
:102F60000023DBB215E03B68082B09D17B6893F89E
:102F70004030DBB2012B14BF01230023DBB208E099
:102F80007B6893F84130DBB2012B14BF012300238F
:102F9000DBB2002B01D0012368E03B68002B04D199
:102FA0007B68022283F83E2013E03B68042B04D1A7
:102FB0007B68022283F83F200BE03B68082B04D19A
:102FC0007B68022283F8402003E07B68022283F8BA
:102FD00041207B681B6801223968184601F012F80D
:102FE0007B681B68234A934207D17B681B685A6C35
:102FF0007B681B6842F400425A647B681B681D4A68
:10300000934218D07B681B68B3F1804F13D07B6864
:103010001B68194A93420ED07B681B68174A93427B
:1030200009D07B681B68164A934204D07B681B68F2
:10303000144A934211D17B681B689B6803F0070315
:10304000FB60FB68062B10D07B681B681A687B68E6
:103050001B6842F001021A6007E07B681B681A686F
:103060007B681B6842F001021A6000231846103783
:10307000BD4680BD00000140000400400008004043
:10308000000C00400040014080B582B000AF786085
:1030900039607B681B6800223968184600F0B2FF6F
:1030A0007B681B68294A934217D17B681B681A6AA0
:1030B00041F211131340002B0FD17B681B681A6A71
:1030C00040F244431340002B07D17B681B685A6CC5
:1030D0007B681B6822F400425A647B681B681A6A8A
:1030E00041F211131340002B0FD17B681B681A6A41
:1030F00040F244431340002B07D17B681B681A68D9
:103100007B681B6822F001021A603B68002B04D127
:103110007B68012283F83E2013E03B68042B04D136
:103120007B68012283F83F200BE03B68082B04D129
:103130007B68012283F8402003E07B68012283F84A
:103140004120002318460837BD4680BD00000140DD
:1031500080B582B000AF78607B68002B01D101237D
:1031600041E07B6893F83D30DBB2002B06D17B68F1
:10317000002283F83C20786800F039F87B6802224E
:1031800083F83D207B681A687B6804331946104633
:1031900000F002FC7B68012283F846207B68012254
:1031A00083F83E207B68012283F83F207B68012260
:1031B00083F840207B68012283F841207B6801224C
:1031C00083F842207B68012283F843207B68012238
:1031D00083F844207B68012283F845207B68012224
:1031E00083F83D20002318460837BD4680BD80B4D3
:1031F00083B000AF786000BF0C37BD465DF8047B3C
:103200007047000080B584B000AF7860396000235B
:10321000FB733B68002B04D17B6893F83E30DBB234
:1032200013E03B68042B04D17B6893F83F30DBB29A
:103230000BE03B68082B04D17B6893F84030DBB28D
:1032400003E07B6893F84130DBB2BB733B68002B33
:1032500004D17B6893F84230DBB213E03B68042B67
:1032600004D17B6893F84330DBB20BE03B68082B5A
:1032700004D17B6893F84430DBB203E07B6893F8B9
:103280004530DBB27B73BB7B012B02D17B7B012BF7
:1032900001D00123C2E03B68002B04D17B680222ED
:1032A00083F83E2013E03B68042B04D17B680222A4
:1032B00083F83F200BE03B68082B04D17B68022297
:1032C00083F8402003E07B68022283F841203B68BA
:1032D000002B04D17B68022283F8422013E03B6874
:1032E000042B04D17B68022283F843200BE03B6867
:1032F000082B04D17B68022283F8442003E07B681A
:10330000022283F845203B680C2B41D801A252F8D9
:1033100023F000BF493300089133000891330008BF
:10332000913300085B3300089133000891330008A3
:10333000913300086D330008913300089133000881
:10334000913300087F3300087B681B68DA687B686C
:103350001B6842F00202DA601DE07B681B68DA68D5
:103360007B681B6842F00402DA6014E07B681B682B
:10337000DA687B681B6842F00802DA600BE07B6861
:103380001B68DA687B681B6842F01002DA6002E0B2
:103390000123FB7300BFFB7B002B3ED17B681B68C6
:1033A00001223968184600F02DFE7B681B681D4A13
:1033B000934218D07B681B68B3F1804F13D07B68B1
:1033C0001B68194A93420ED07B681B68174A9342C8
:1033D00009D07B681B68164A934204D07B681B683F
:1033E000144A934211D17B681B689B6803F0070362
:1033F000BB60BB68062B10D07B681B681A687B68B3
:103400001B6842F001021A6007E07B681B681A68BB
:103410007B681B6842F001021A60FB7B184610377C
:10342000BD4680BD0000014000040040000800408F
:10343000000C00400040014080B584B000AF7860CF
:103440007B681B68DB68FB607B681B681B69BB6073
:10345000BB6803F00203002B20D0FB6803F00203DB
:10346000002B1BD07B681B686FF002021A617B681F
:1034700001221A777B681B689B6903F00303002B0A
:1034800003D07868FDF788FF05E0786800F066FAF9
:10349000786800F06DFA7B6800221A77BB6803F049
:1034A0000403002B20D0FB6803F00403002B1BD087
:1034B0007B681B686FF004021A617B6802221A772E
:1034C0007B681B689B6903F44073002B03D078680A
:1034D000FDF762FF05E0786800F040FA786800F0D8
:1034E00047FA7B6800221A77BB6803F00803002BB9
:1034F00020D0FB6803F00803002B1BD07B681B68FF
:103500006FF008021A617B6804221A777B681B68D7
:10351000DB6903F00303002B03D07868FDF73CFF61
:1035200005E0786800F01AFA786800F021FA7B6804
:1035300000221A77BB6803F01003002B20D0FB6831
:1035400003F01003002B1BD07B681B686FF0100288
:103550001A617B6808221A777B681B68DB6903F4B1
:103560004073002B03D07868FDF716FF05E07868FC
:1035700000F0F4F9786800F0FBF97B6800221A7714
:10358000BB6803F00103002B0CD0FB6803F00103C0
:10359000002B07D07B681B686FF001021A61786806
:1035A000FDF77CF8BB6803F08003002B0CD0FB68B0
:1035B00003F08003002B07D07B681B686FF080024C
:1035C0001A61786800F04DFDBB6803F04003002BE2
:1035D0000CD0FB6803F04003002B07D07B681B680E
:1035E0006FF040021A61786800F0CCF9BB6803F014
:1035F0002003002B0CD0FB6803F02003002B07D026
:103600007B681B686FF020021A61786800F01FFD6C
:1036100000BF1037BD4680BD80B586B000AFF860F2
:10362000B9607A600023FB75FB6893F83C30012B8E
:1036300001D1022388E0FB68012283F83C207B68EB
:10364000002B1BD1FB681868BB681968BB685A68F7
:10365000BB68DB6800F0B8FBFB681B689A69FB6815
:103660001B6822F00C029A61FB681B689969BB68B1
:103670009A68FB681B680A439A6160E07B68042BC8
:103680001CD1FB681868BB681968BB685A68BB68BE
:10369000DB6800F001FCFB681B689A69FB681B682B
:1036A00022F440629A61FB681B689969BB689B6859
:1036B0001A02FB681B680A439A6140E07B68082B8A
:1036C0001BD1FB681868BB681968BB685A68BB687F
:1036D000DB6800F01EFCFB681B68DA69FB681B688E
:1036E00022F00C02DA61FB681B68D969BB689A6832
:1036F000FB681B680A43DA6121E07B680C2B1CD154
:10370000FB681868BB681968BB685A68BB68DB68E7
:1037100000F03BFCFB681B68DA69FB681B6822F45D
:103720004062DA61FB681B68D969BB689B681A0252
:10373000FB681B680A43DA6101E00123FB75FB6843
:10374000002283F83C20FB7D18461837BD4680BD1B
:1037500080B586B000AFF860B9607A600023FB7571
:10376000FB6893F83C30012B01D10223AEE0FB68EB
:10377000012283F83C207B680C2B00F29F8001A281
:1037800052F823F0B9370008BD380008BD380008EA
:10379000BD380008F9370008BD380008BD380008FA
:1037A000BD3800083B380008BD380008BD380008A7
:1037B000BD3800087B380008FB681B68B9681846EC
:1037C00000F076F9FB681B689A69FB681B6842F099
:1037D00008029A61FB681B689A69FB681B6822F003
:1037E00004029A61FB681B689969BB681A69FB68E7
:1037F0001B680A439A6164E0FB681B68B968184655
:1038000000F0BCF9FB681B689A69FB681B6842F40E
:1038100000629A61FB681B689A69FB681B6822F466
:1038200080629A61FB681B689969BB681B691A0210
:10383000FB681B680A439A6143E0FB681B68B96830
:10384000184600F007FAFB681B68DA69FB681B681A
:1038500042F00802DA61FB681B68DA69FB681B68E2
:1038600022F00402DA61FB681B68D969BB681A6937
:10387000FB681B680A43DA6123E0FB681B68B968D0
:10388000184600F051FAFB681B68DA69FB681B6890
:1038900042F40062DA61FB681B68DA69FB681B6846
:1038A00022F48062DA61FB681B68D969BB681B6916
:1038B0001A02FB681B680A43DA6102E00123FB7508
:1038C00000BFFB68002283F83C20FB7D18461837B8
:1038D000BD4680BD80B485B000AF786039600023FC
:1038E000FB603B680C2B31D801A252F823F000BFDB
:1038F000253900084D3900084D3900084D390008B8
:103900002F3900084D3900084D3900084D3900089D
:10391000393900084D3900084D3900084D39000883
:10392000433900087B681B685B6BFB600FE07B68BA
:103930001B689B6BFB600AE07B681B68DB6BFB60B2
:1039400005E07B681B681B6CFB6000E000BFFB6848
:1039500018461437BD465DF8047B704780B483B0C9
:1039600000AF786000BF0C37BD465DF8047B704740
:1039700080B483B000AF786000BF0C37BD465DF8FF
:10398000047B704780B483B000AF786000BF0C3711
:10399000BD465DF8047B704780B485B000AF7860A9
:1039A00039607B681B68FB607B683A4A93420FD0A2
:1039B0007B68B3F1804F0BD07B68374A934207D0C6
:1039C0007B68364A934203D07B68354A934208D1DC
:1039D000FB6823F07003FB603B685B68FA68134385
:1039E000FB607B682B4A93421BD07B68B3F1804F0E
:1039F00017D07B68284A934213D07B68274A9342AA
:103A00000FD07B68264A93420BD07B68254A9342AD
:103A100007D07B68244A934203D07B68234A9342B1
:103A200008D1FB6823F44073FB603B68DB68FA68ED
:103A30001343FB60FB6823F080023B685B69134320
:103A4000FB607B68FA681A603B689A687B68DA6298
:103A50003B681A687B689A627B680E4A934203D17E
:103A60003B681A697B681A637B6801225A617B682C
:103A70001B6903F00103012B05D17B681B6923F04F
:103A800001027B681A6100BF1437BD465DF8047BF4
:103A9000704700BF000001400004004000080040E3
:103AA000000C00400040014000440140004801403B
:103AB00080B487B000AF786039607B681B6A7B6137
:103AC0007B681B6A23F001027B681A627B685B6873
:103AD0003B617B689B69FB60FB6823F07003FB60C4
:103AE000FB6823F00303FB603B681B68FA68134321
:103AF000FB607B6923F002037B613B689B687A690A
:103B000013437B617B681C4A93420CD17B6923F091
:103B100008037B613B68DB687A6913437B617B69DF
:103B200023F004037B617B68134A934211D13B6904
:103B300023F480733B613B6923F400733B613B6872
:103B40005B693A6913433B613B689B693A6913437C
:103B50003B617B683A695A607B68FA689A613B68A6
:103B60005A687B685A637B687A691A6200BF1C379F
:103B7000BD465DF8047B70470000014080B487B00B
:103B800000AF786039607B681B6A7B617B681B6A69
:103B900023F010027B681A627B685B683B617B687C
:103BA0009B69FB60FB6823F4E043FB60FB6823F444
:103BB0004073FB603B681B681B02FA681343FB60A1
:103BC0007B6923F020037B613B689B681B017A695A
:103BD00013437B617B681E4A93420DD17B6923F0BE
:103BE00080037B613B68DB681B017A6913437B615F
:103BF0007B6923F040037B617B68154A934213D1B4
:103C00003B6923F480633B613B6923F400633B61C0
:103C10003B685B699B003A6913433B613B689B6966
:103C20009B003A6913433B617B683A695A607B6841
:103C3000FA689A613B685A687B689A637B687A691C
:103C40001A6200BF1C37BD465DF8047B704700BF99
:103C50000000014080B487B000AF786039607B68B5
:103C60001B6A7B617B681B6A23F480727B681A6223
:103C70007B685B683B617B68DB69FB60FB6823F00A
:103C80007003FB60FB6823F00303FB603B681B6869
:103C9000FA681343FB607B6923F400737B613B6824
:103CA0009B681B027A6913437B617B681D4A9342C0
:103CB0000DD17B6923F400637B613B68DB681B02E9
:103CC0007A6913437B617B6923F480637B617B6842
:103CD000144A934213D13B6923F480533B613B69FF
:103CE00023F400533B613B685B691B013A69134352
:103CF0003B613B689B691B013A6913433B617B68ED
:103D00003A695A607B68FA68DA613B685A687B688E
:103D1000DA637B687A691A6200BF1C37BD465DF8BA
:103D2000047B70470000014080B487B000AF78602A
:103D300039607B681B6A3B617B681B6A23F4805295
:103D40007B681A627B685B687B617B68DB69FB6010
:103D5000FB6823F4E043FB60FB6823F44073FB60E3
:103D60003B681B681B02FA681343FB603B6923F442
:103D700000533B613B689B681B033A6913433B61FB
:103D80007B68104A934209D17B6923F480437B61AD
:103D90003B685B699B017A6913437B617B687A6945
:103DA0005A607B68FA68DA613B685A687B681A6413
:103DB0007B683A691A6200BF1C37BD465DF8047B18
:103DC000704700BF0000014080B487B000AFF860CA
:103DD000B9607A603B60FB681B6A3B61FB681B6AE9
:103DE00023F00102FB681A62FB689B697B61FB6838
:103DF000244A934213D0FB68B3F1804F0FD0FB6885
:103E0000214A93420BD0FB68204A934207D0FB68BB
:103E10001F4A934203D0FB681E4A934201D10123FB
:103E200000E00023002B08D07B6923F003037B61B3
:103E30007A697B6813437B6103E07B6943F001038C
:103E40007B617B6923F0F0037B613B681B01DBB284
:103E50007A6913437B613B6923F00A033B61BB68CA
:103E600003F00A033A6913433B61FB687A699A617C
:103E7000FB683A691A6200BF1C37BD465DF8047BD7
:103E8000704700BF000001400004004000080040EF
:103E9000000C00400040014080B487B000AFF860E3
:103EA000B9607A603B60FB681B6A7B61FB681B6AD8
:103EB00023F01002FB681A62FB689B693B613B6957
:103EC00023F440733B617B681B023A6913433B61F7
:103ED0003B6923F470433B613B681B039BB23A6927
:103EE00013433B617B6923F0A0037B61BB681B012B
:103EF00003F0A0037A6913437B61FB683A699A6116
:103F0000FB687A691A6200BF1C37BD465DF8047B06
:103F1000704780B487B000AFF860B9607A603B60EA
:103F2000FB681B6A7B61FB681B6A23F48072FB6879
:103F30001A62FB68DB693B613B6923F003033B6169
:103F40003A697B6813433B613B6923F0F0033B61B3
:103F50003B681B01DBB23A6913433B617B6923F485
:103F600020637B61BB681B0203F420637A691343FF
:103F70007B61FB683A69DA61FB687A691A6200BFA3
:103F80001C37BD465DF8047B704780B487B000AF36
:103F9000F860B9607A603B60FB681B6A7B61FB6814
:103FA0001B6A23F48052FB681A62FB68DB693B6181
:103FB0003B6923F440733B617B681B023A691343FE
:103FC0003B613B6923F470433B613B681B039BB23D
:103FD0003A6913433B617B6923F420437B61BB68EF
:103FE0001B0303F420437A6913437B61FB683A693E
:103FF000DA61FB687A691A6200BF1C37BD465DF85A
:10400000047B704780B487B000AFF860B9607A6015
:10401000BB6803F01F03012202FA03F37B61FB6814
:104020001A6A7B69DB431A40FB681A62FB681A6AEA
:10403000BB6803F01F03796801FA03F31A43FB68B6
:104040001A6200BF1C37BD465DF8047B704780B420
:1040500083B000AF786000BF0C37BD465DF8047BCD
:10406000704780B483B000AF786000BF0C37BD46A6
:104070005DF8047B7047000080B483B000AF034656
:104080003960FB7197F90730002B0ADB3B68DAB225
:104090000C4997F907301201D2B20B4483F8002380
:1040A0000AE03B68DAB20849FB7903F00F03043BEE
:1040B0001201D2B20B441A7600BF0C37BD465DF830
:1040C000047B704700E100E000ED00E080B500AF48
:1040D000054B1B6801F05CFF0346012B01D002F089
:1040E000F3FC00BF80BD00BF10E000E080B500AF72
:1040F00000216FF00400FFF7BFFF00BF80BD00008C
:1041000080B483B000AFEFF305833B603B68002BC6
:1041100003D06FF005037B600CE00A4B1B68002B9B
:1041200005D1084B01221A6000237B6002E04FF0AA
:10413000FF337B607B6818460C37BD465DF8047B17
:10414000704700BF1803002080B582B000AFEFF3C6
:1041500005833B603B68002B03D06FF005037B6059
:1041600010E00B4B1B68012B09D1FFF7BFFF084B79
:1041700002221A6001F036FB00237B6002E04FF060
:10418000FF337B607B6818460837BD4680BD00BFA3
:104190001803002080B58EB004AFF860B9607A6073
:1041A00000233B61EFF305837B617B69002B7ED1AC
:1041B000FB68002B7BD080233B621823FB6100232C
:1041C0007B624FF0FF33BB617B68002B45D07B687F
:1041D0001B68002B02D07B681B687B627B689B6935
:1041E000002B02D07B689B69FB61FB69002B08D028
:1041F000FB69382B05D87B685B6803F00103002B53
:1042000001D0002354E07B685B69002B03D07B68FE
:104210005B699B083B627B689B68002B0ED07B68C8
:10422000DB68A72B0AD97B681B69002B06D07B684B
:104230005B69002B02D00123BB6110E07B689B68A7
:10424000002B0CD17B68DB68002B08D17B681B69D5
:10425000002B04D10023BB6101E00023BB61BB69DB
:10426000012B10D17B681B697A68926802920193D6
:10427000FB690093BB683A6A796AF86801F012F941
:1042800003463B6113E0BB69002B10D13B6A9AB235
:1042900007F110030193FB690093BB68796AF86822
:1042A00001F030F90346012B01D000233B613B694B
:1042B00018462837BD4680BD80B584B000AF786011
:1042C000EFF30583BB60BB68002B03D06FF00503E1
:1042D000FB6007E00023FB607B68002B02D078685E
:1042E00001F05CFAFB6818461037BD4680BD80B50A
:1042F00088B000AF78600023FB61EFF30583BB60FB
:10430000BB68002B74D17B68002B03D07B685B6893
:10431000BB6101E00023BB61BB6903F00103002B1B
:1043200002D001237B6101E000237B61BB6903F0C4
:104330000803002B5CD14FF0FF333B617B68002BFF
:1043400015D07B689B68002B06D07B68DB684F2B01
:1043500002D901233B610CE07B689B68002B08D1EC
:104360007B68DB68002B04D100233B6101E0002364
:104370003B613B69012B12D17B69002B07D07B6825
:104380009B681946042000F0D3FBF86116E07B68B7
:104390009B681946012000F0CBFBF8610EE03B69F9
:1043A000002B0BD17B69002B04D0042000F0A8FB6C
:1043B000F86103E0012000F0A3FBF861FB69002B2A
:1043C0000CD07B68002B03D07B681B68FB6001E08E
:1043D0000023FB60F968F86901F006F8FB69002B1F
:1043E00006D07B69002B03D0FB6943F00103FB611E
:1043F000FB6918462037BD4680BD80B586B000AF4A
:10440000786039607B6823F001033B617B6803F0CF
:104410000103FB6000237B61EFF30583BB60BB6896
:10442000002B03D06FF005037B612CE03B69002B70
:1044300003D16FF003037B6125E0FB68002B11D0F3
:104440003968386900F0B5FB0346012B1BD03B6887
:10445000002B03D06FF001037B6114E06FF00203C7
:104460007B6110E03968386900F076FD0346012B66
:1044700009D03B68002B03D06FF001037B6102E0A1
:104480006FF002037B617B6918461837BD4680BD1B
:1044900080B586B000AF78607B6823F001033B6194
:1044A0007B6803F00103FB6000237B61EFF305836E
:1044B000BB60BB68002B03D06FF005037B611FE07E
:1044C0003B69002B03D16FF003037B6118E0FB68AD
:1044D000002B09D0386900F046FB0346012B0FD0B2
:1044E0006FF002037B610BE000230022002138699A
:1044F00000F088FB0346012B02D06FF002037B61C2
:104500007B6918461837BD4680BD80B58AB002AFBA
:10451000F860B9607A600023FB61EFF305833B61CB
:104520003B69002B5FD1FB68002B5CD0BB68002B84
:1045300059D04FF0FF33BB617B68002B29D07B68DB
:104540009B68002B12D07B68DB684F2B0ED97B68F1
:104550001B69002B0AD07B685A69FB68B96801FBAC
:1045600003F39A4202D30123BB6114E07B689B688A
:10457000002B10D17B68DB68002B0CD17B681B699A
:10458000002B08D17B685B69002B04D10023BB6141
:1045900001E00023BB61BB69012B0BD17B681A6969
:1045A0007B689B6800210091B968F86800F020FAE8
:1045B000F86108E0BB69002B05D10022B968F868F2
:1045C00000F035FAF861FB69002B0CD07B68002BFA
:1045D00003D07B681B687B6101E000237B61796904
:1045E000F86900F001FFFB6918462037BD4680BD21
:1045F00080B588B000AFF860B9603B601346FB71CE
:10460000FB68BB610023FB61EFF305837B617B6982
:10461000002B28D0BB69002B05D0BB68002B02D033
:104620003B68002B03D06FF00303FB6138E00023ED
:104630003B6107F110020023B968B86900F08CFBF8
:104640000346012B03D06FF00203FB6128E03B69B6
:10465000002B25D0154B4FF080521A60BFF34F8FBF
:10466000BFF36F8F1CE0BB69002B02D0BB68002B2F
:1046700003D16FF00303FB6112E000233A68B968CD
:10468000B86900F0BFFA0346012B09D03B68002B44
:1046900003D06FF00103FB6102E06FF00203FB61E6
:1046A000FB6918462037BD4680BD00BF04ED00E021
:1046B00080B588B000AFF860B9607A603B60FB6895
:1046C000BB610023FB61EFF305837B617B69002BFA
:1046D00028D0BB69002B05D0BB68002B02D03B68FB
:1046E000002B03D06FF00303FB6137E000233B6135
:1046F00007F110031A46B968B86900F0F5FC0346E3
:10470000012B03D06FF00203FB6127E03B69002B14
:1047100024D0154B4FF080521A60BFF34F8FBFF378
:104720006F8F1BE0BB69002B02D0BB68002B03D14D
:104730006FF00303FB6111E03A68B968B86900F0F3
:1047400069FB0346012B09D03B68002B03D06FF0B7
:104750000103FB6102E06FF00203FB61FB69184695
:104760002037BD4680BD00BF04ED00E080B485B0B9
:1047700000AFF860B9607A60FB68074A1A60BB68EE
:10478000064A1A607B6880221A6000BF1437BD4653
:104790005DF8047B704700BF1C030020C4030020A9
:1047A00080B485B000AFF860B9607A60FB68074AF2
:1047B0001A60BB68064A1A607B684FF480721A6000
:1047C00000BF1437BD465DF8047B7047C405002068
:1047D0006C06002080B483B000AF78607B6803F182
:1047E00008027B685A607B684FF0FF329A607B68F2
:1047F00003F108027B68DA607B6803F108027B68DA
:104800001A617B6800221A6000BF0C37BD465DF854
:10481000047B704780B483B000AF78607B6800226F
:104820001A6100BF0C37BD465DF8047B704780B449
:1048300085B000AF786039607B685B68FB603B687F
:10484000FA685A60FB689A683B689A60FB689B68E4
:104850003A685A60FB683A689A603B687A681A61FD
:104860007B681B685A1C7B681A6000BF1437BD4602
:104870005DF8047B704780B485B000AF7860396024
:104880003B681B68BB60BB68B3F1FF3F03D17B682B
:104890001B69FB600CE07B680833FB6002E0FB688F
:1048A0005B68FB60FB685B681B68BA689A42F6D27B
:1048B000FB685A683B685A603B685B683A689A6074
:1048C0003B68FA689A60FB683A685A603B687A68A5
:1048D0001A617B681B685A1C7B681A6000BF14371A
:1048E000BD465DF8047B704780B485B000AF78604A
:1048F0007B681B69FB607B685B687A6892689A607A
:104900007B689B687A6852685A60FB685B687A6863
:104910009A4203D17B689A68FB685A607B680022E0
:104920001A61FB681B685A1EFB681A60FB681B68EB
:1049300018461437BD465DF8047B704780B584B0D7
:1049400000AF786039607B68FB6002F053F8FB6869
:104950001A68FB68DB6BF968096C01FB03F31A4406
:10496000FB689A60FB6800229A63FB681A68FB6820
:104970005A60FB681A68FB68DB6B013BF968096CDD
:1049800001FB03F31A44FB68DA60FB68FF2283F83B
:104990004420FB68FF2283F845203B68002B14D19C
:1049A000FB681B69002B1AD0FB681033184601F016
:1049B00057F90346002B12D00C4B4FF080521A606F
:1049C000BFF34F8FBFF36F8F09E0FB6810331846BA
:1049D000FFF700FFFB6824331846FFF7FBFE02F0E9
:1049E00023F8012318461037BD4680BD04ED00E0D2
:1049F00080B588B002AFF860B9607A603B603B6810
:104A00007B617B69002B0DD07B69012283F84620F6
:104A100097F820207B69009313467A68B968F86894
:104A200000F031F87B6918461837BD4680BD80B567
:104A30008AB002AFF860B9601346FB71FB68BA68D0
:104A400002FB03F3FB61FB695033184602F08CF85C
:104A5000B861BB69002B11D0BB697B617B695033A6
:104A60007B61BB69002283F84620FA79BB69009319
:104A700013467A69B968F86800F005F8BB6918460A
:104A80002037BD4680BD80B584B000AFF860B96006
:104A90007A60FB70BB68002B03D1BB69BA691A60EE
:104AA00002E0BB697A681A60BB69FA68DA63BB69BD
:104AB000BA681A640121B869FFF740FFBB69FA7848
:104AC00083F84C2000BF1037BD4680BD80B582B052
:104AD00000AF78607B68002B0ED07B6800229A6064
:104AE0007B6800221A607B680022DA6000230022C3
:104AF0000021786800F086F800BF0837BD4680BD09
:104B000080B586B000AF0346FB7101237B610023B3
:104B10003B61FB791A4639697869FFF788FFF860CD
:104B2000F868FFF7D3FFFB6818461837BD4680BD0D
:104B300080B588B002AF03463960FB7101237B6109
:104B400000233B61FB7900933B6800223969786957
:104B5000FFF74EFFF860F868FFF7B8FFFB681846EC
:104B60001837BD4680BD90B585B000AF78607B68D2
:104B7000BB60BB689C6801F0FBF903469C4211D105
:104B8000BB68DB685A1EBB68DA60BB68DB68002B59
:104B900005D1002300220021B86800F033F801237A
:104BA000FB6001E00023FB60FB6818461437BD463C
:104BB00090BD90B585B000AF786039607B68BB6010
:104BC000BB689C6801F0D4F903469C4207D1BB68DE
:104BD000DB685A1CBB68DA600123FB600CE03968B3
:104BE000B86800F0B9F9F860FB68002B04D0BB6826
:104BF000DB685A1CBB68DA60FB6818461437BD4690
:104C000090BD000080B58AB000AFF860B9607A60EE
:104C10003B6000237B62FB683B6201F0EBFE3B6A7A
:104C20009A6B3B6ADB6B9A4202D33B68022B29D119
:104C30003A68B968386A00F0C6FAF8613B6A5B6A9C
:104C4000002B10D03B6A2433184601F009F80346C4
:104C5000002B13D03F4B4FF080521A60BFF34F8FA1
:104C6000BFF36F8F0AE0FB69002B07D0394B4FF081
:104C700080521A60BFF34F8FBFF36F8F01F0D4FEE5
:104C8000012363E07B68002B03D101F0CDFE0023FC
:104C90005CE07B6A002B06D107F11403184601F093
:104CA00035F801237B6201F0BFFE00F0FBFD01F04F
:104CB000A1FE3B6A93F844305BB2B3F1FF3F03D1EE
:104CC0003B6A002283F844203B6A93F845305BB28C
:104CD000B3F1FF3F03D13B6A002283F8452001F086
:104CE000A3FE3A1D07F114031146184601F024F8FB
:104CF0000346002B24D1386A00F05DFB0346002BED
:104D000018D03B6A10337A681146184600F074FFD9
:104D1000386A00F0E8FA00F0D3FD0346002B7FF478
:104D20007CAF0C4B4FF080521A60BFF34F8FBFF334
:104D30006F8F72E7386A00F0D6FA00F0C1FD6CE7B9
:104D4000386A00F0D0FA00F0BBFD0023184628377F
:104D5000BD4680BD04ED00E080B58CB000AFF860CA
:104D6000B9607A603B60FB68BB62EFF311824FF081
:104D7000500383F31188BFF36F8FBFF34F8FBA6176
:104D80007B61BB697B62BB6A9A6BBB6ADB6B9A42D5
:104D900002D33B68022B2FD1BB6A93F8453087F8CA
:104DA0002330BB6A9B6BFB613A68B968B86A00F054
:104DB0000AFA97F92330B3F1FF3F12D1BB6A5B6A5D
:104DC000002B16D0BB6A2433184600F049FF034677
:104DD000002B0ED07B68002B0BD07B6801221A6061
:104DE00007E097F823300133DBB25AB2BB6A83F88D
:104DF00045200123FB6201E00023FB627B6A3B61EB
:104E00003B6983F3118800BFFB6A18463037BD4603
:104E100080BD000080B58AB000AFF860B9607A60EC
:104E200000237B62FB683B6201F0E4FD3B6A9B6B05
:104E3000FB61FB69002B1FD0B968386A00F02DFABE
:104E4000FB695A1E3B6A9A633B6A1B69002B0FD0B1
:104E50003B6A1033184600F003FF0346002B07D0CF
:104E60003C4B4FF080521A60BFF34F8FBFF36F8FF0
:104E700001F0DAFD012369E07B68002B03D101F02A
:104E8000D3FD002362E07B6A002B06D107F11403F7
:104E9000184600F03BFF01237B6201F0C5FD00F0E6
:104EA00001FD01F0A7FD3B6A93F844305BB2B3F11A
:104EB000FF3F03D13B6A002283F844203B6A93F80A
:104EC00045305BB2B3F1FF3F03D13B6A002283F868
:104ED000452001F0A9FD3A1D07F1140311461846BB
:104EE00000F02AFF0346002B23D1386A00F04DFA68
:104EF0000346002B17D03B6A24337A6811461846C4
:104F000000F07AFE386A00F0EEF900F0D9FC0346B2
:104F1000002B89D10F4B4FF080521A60BFF34F8F97
:104F2000BFF36F8F80E7386A00F0DDF900F0C8FC4E
:104F30007AE7386A00F0D7F900F0C2FC386A00F06E
:104F400024FA0346002B3FF46FAF0023184628379E
:104F5000BD4680BD04ED00E080B58AB000AF78604A
:104F6000396000237B627B68FB6100233B6201F0B8
:104F700041FDFB699B6BBB61BB69002B24D0BB6906
:104F80005A1EFB699A63FB691B68002B04D101F070
:104F900031F90246FB699A60FB691B69002B0FD04F
:104FA000FB691033184600F05BFE0346002B07D068
:104FB0004C4B4FF080521A60BFF34F8FBFF36F8F8F
:104FC00001F032FD012389E03B68002B03D101F0A1
:104FD0002BFD002382E07B6A002B06D107F10C0336
:104FE000184600F093FE01237B6201F01DFD00F0E6
:104FF00059FC01F0FFFCFB6993F844305BB2B3F15C
:10500000FF3F03D1FB69002283F84420FB6993F83A
:1050100045305BB2B3F1FF3F03D1FB69002283F857
:10502000452001F001FD3A4607F10C0311461846F0
:1050300000F082FE0346002B32D1F86900F0A5F99A
:105040000346002B26D0FB691B68002B09D101F019
:10505000D1FCFB699B68184600F0B8FF386201F08C
:10506000E3FCFB6924333A681146184600F0C4FD9E
:10507000F86900F038F900F023FC0346002B7FF4B8
:1050800076AF184B4FF080521A60BFF34F8FBFF3CB
:105090006F8F6CE7F86900F026F900F011FC66E705
:1050A000F86900F020F900F00BFCF86900F06DF9E8
:1050B0000346002B3FF45BAF3B6A002B0DD001F0A1
:1050C00099FCF86900F067F87861FB699B68796979
:1050D000184601F02FF801F0A7FC002318462837E6
:1050E000BD4680BD04ED00E080B58CB000AFF86037
:1050F000B9607A60FB68BB62EFF311824FF0500336
:1051000083F31188BFF36F8FBFF34F8FBA617B6159
:10511000BB697B62BB6A9B6B3B623B6A002B2DD0F9
:10512000BB6A93F84430FB77B968B86A00F0B5F809
:105130003B6A5A1EBB6A9A6397F91F30B3F1FF3F6F
:1051400012D1BB6A1B69002B15D0BB6A10331846FD
:1051500000F086FD0346002B0DD07B68002B0AD0A3
:105160007B6801221A6006E0FB7F0133DBB25AB292
:10517000BB6A83F844200123FB6201E00023FB6249
:105180007B6A3B613B6983F3118800BFFB6A184669
:105190003037BD4680BD80B485B000AF78607B6895
:1051A0005B6A002B06D07B681B6B1B68C3F138035E
:1051B000FB6001E00023FB60FB6818461437BD4626
:1051C0005DF8047B704780B586B000AFF860B960C9
:1051D0007A6000237B61FB689B6B3B61FB681B6C07
:1051E000002B0DD1FB681B68002B4DD1FB689B6821
:1051F000184600F053FF7861FB6800229A6043E094
:105200007B68002B19D1FB685868FB681B6C1A4639
:10521000B96801F0C3FEFB685A68FB681B6C1A444E
:10522000FB685A60FB685A68FB689B689A422BD3FC
:10523000FB681A68FB685A6026E0FB68D868FB6860
:105240001B6C1A46B96801F0A9FEFB68DA68FB68B6
:105250001B6C5B421A44FB68DA60FB68DA68FB6827
:105260001B689A4207D2FB689A68FB681B6C5B421A
:105270001A44FB68DA607B68022B05D13B69002B7E
:1052800002D03B69013B3B613B695A1CFB689A6356
:105290007B6918461837BD4680BD80B582B000AF27
:1052A000786039607B681B6C002B18D07B68DA68EB
:1052B0007B681B6C1A447B68DA607B68DA687B6801
:1052C0009B689A4203D37B681A687B68DA607B68C4
:1052D000D9687B681B6C1A46386801F05FFE00BF16
:1052E0000837BD4680BD80B584B000AF786001F05E
:1052F00081FB7B6893F84530FB7311E07B685B6A48
:10530000002B12D07B682433184600F0A9FC03461A
:10531000002B01D000F056FDFB7B013BDBB2FB73A1
:1053200097F90F30002BE9DC00E000BF7B68FF221B
:1053300083F8452001F078FB01F05CFB7B6893F873
:105340004430BB7311E07B681B69002B12D07B6873
:105350001033184600F084FC0346002B01D000F007
:1053600031FDBB7B013BDBB2BB7397F90E30002BE9
:10537000E9DC00E000BF7B68FF2283F8442001F0F5
:1053800053FB00BF1037BD4680BD80B584B000AF71
:10539000786001F02FFB7B689B6B002B02D101230F
:1053A000FB6001E00023FB6001F03EFBFB68184658
:1053B0001037BD4680BD80B584B000AF786001F085
:1053C00019FB7B689A6B7B68DB6B9A4202D10123E5
:1053D000FB6001E00023FB6001F026FBFB68184640
:1053E0001037BD4680BD000080B485B000AF786046
:1053F00039600023FB6014E00F4AFB6852F8333039
:10540000002B0BD10C49FB683A6841F833200A4A5B
:10541000FB68DB0013447A685A6006E0FB680133DE
:10542000FB60FB68072BE7D900BF00BF1437BD4600
:105430005DF8047B704700BF6C0A002080B586B021
:1054400000AFF860B9607A60FB687B6101F0D2FA66
:105450007B6993F844305BB2B3F1FF3F03D17B69C2
:10546000002283F844207B6993F845305BB2B3F1A6
:10547000FF3F03D17B69002283F8452001F0D4FA75
:105480007B699B6B002B06D17B6924337A68B968F2
:10549000184600F0C7FB7869FFF725FF00BF1837F3
:1054A000BD4680BD80B58AB004AFF860B9607A604F
:1054B0003B60BB6A002B1ED07B6A002B1BD0BB6AF3
:1054C0007B617B697A6A1A637B69022283F8A52073
:1054D000002303937B69029307F1100301933B6A56
:1054E00000933B687A68B968F86800F051F8786909
:1054F00000F0E4F801E000233B613B6918461837EF
:10550000BD4680BD80B58CB004AFF860B9603B602B
:105510001346FB80FB889B00184601F025FB786151
:105520007B69002B0ED0A82001F01EFBF861FB69FF
:10553000002B03D0FB697A691A6305E0786901F0F2
:10554000ADFB01E00023FB61FB69002B17D0FB6979
:10555000002283F8A520FA8800230393FB690293B5
:10556000FB6A0193BB6A00933B68B968F86800F076
:105570000FF8F86900F0A2F80123BB6102E04FF0D8
:10558000FF33BB61BB6918462037BD4680BD0000B4
:1055900080B586B000AFF860B9607A603B60BB6AE6
:1055A000186B7B689B001A46A52101F073FCBB6A4F
:1055B0001A6B7B6803F18043013B9B0013443B6102
:1055C0003B6923F007033B61BB68002B1FD000231E
:1055D0007B6112E0BA687B6913441978BA6A7B6907
:1055E000134434330A461A70BA687B6913441B7833
:1055F000002B06D07B6901337B617B690F2BE9D9D6
:1056000000E000BFBB6A002283F8432003E0BB6ACE
:10561000002283F834203B6A372B01D937233B62C1
:10562000BB6A3A6ADA62BB6A3A6ADA64BB6A002227
:105630001A65BB6A04331846FFF7ECF8BB6A1833E7
:105640001846FFF7E7F8BB6ABA6A1A613B6AC3F10A
:105650003802BB6A9A61BB6ABA6A5A62BB6A0022A4
:10566000C3F8A020BB6A002283F8A420BB6A54338D
:105670004C220021184601F00DFCBB6A0C4A9A65C9
:10568000BB6A0C4ADA65BB6A0B4A1A663A68F96863
:10569000386901F009F90246BB6A1A607B6A002B7F
:1056A00002D07B6ABA6A1A6000BF1837BD4680BD57
:1056B000F84C0020604D0020C84D002080B582B01D
:1056C00000AF786001F096F92D4B1B6801332C4A2E
:1056D00013602C4B1B68002B09D12A4A7B6813608E
:1056E000274B1B68012B10D100F090FB0DE0264BDF
:1056F0001B68002B09D1234B1B68DA6A7B68DB6AC5
:105700009A4202D81F4A7B681360204B1B68013302
:105710001E4A13601D4B1A687B685A647B68DA6AFC
:105720001B4B1B689A4203D97B68DB6A184A1360DB
:105730007B68DA6A13469B0013449B00154A1A449F
:105740007B68043319461046FFF771F801F06CF9D5
:105750000D4B1B68002B0ED00A4B1B68DA6A7B6866
:10576000DB6A9A4207D20C4B4FF080521A60BFF3AB
:105770004F8FBFF36F8F00BF0837BD4680BD00BF9E
:10578000800F0020AC0A00208C0F00209C0F00200E
:10579000880F0020B00A002004ED00E080B584B03E
:1057A00000AF78600023FB607B68002B08D000F01E
:1057B00079F80021786800F031FD00F081F8F86098
:1057C000FB68002B07D1064B4FF080521A60BFF3E5
:1057D0004F8FBFF36F8F00BF1037BD4680BD00BF36
:1057E00004ED00E080B58AB004AF0023FB60002325
:1057F000BB603A1D07F1080107F10C031846FEF7DC
:10580000B5FF7968BB68FA680292019300230093A0
:1058100000230A461B491C48FFF744FE03461B4A67
:1058200013601A4B1B68002B02D001237B6101E03F
:1058300000237B617B69012B02D100F043FD78617D
:105840007B69012B1AD14FF0500383F31188BFF30A
:105850006F8FBFF34F8F3B6100BF0D4B1B685433FD
:105860000C4A13600C4B4FF0FF321A600B4B0122B5
:105870001A600B4B00221A6001F092F800BF183733
:10588000BD4680BDCC700008DD5D0008A40F00207F
:10589000AC0A0020C4000020A00F00208C0F0020C4
:1058A000840F002080B400AF044B1B680133034A0F
:1058B000136000BFBD465DF8047B7047A80F002051
:1058C00080B584B000AF0023FB600023BB6001F013
:1058D00091F8394B1B68013B374A1360364B1B6804
:1058E000002B62D1354B1B68002B5ED02FE0344B70
:1058F000DB68DB68FB60FB6818331846FEF7F4FFD3
:10590000FB6804331846FEF7EFFFFB68DA6A2D4B9D
:105910001B689A4203D9FB68DB6A2A4A1360FB685A
:10592000DA6A13469B0013449B00274A1A44FB681B
:10593000043319461046FEF77AFFFB68DA6A234BF8
:105940001B68DB6A9A4202D3214B01221A601C4B6E
:105950001B68002BCBD1FB68002B01D000F0E8FACC
:105960001C4B1B687B607B68002B10D000F046F856
:105970000346002B02D0164B01221A607B68013BC4
:105980007B607B68002BF1D1124B00221A60104B18
:105990001B68002B09D00123BB600F4B4FF08052D6
:1059A0001A60BFF34F8FBFF36F8F01F03DF8BB68F4
:1059B00018461037BD4680BDA80F0020800F00207C
:1059C000400F0020880F0020B00A0020AC0A002001
:1059D000940F0020900F002004ED00E080B483B00D
:1059E00000AF054B1B687B607B6818460C37BD46D3
:1059F0005DF8047B704700BF840F002080B586B03F
:105A000000AF00237B61464B1B68002B7ED1454BCA
:105A10001B6801333B61434A3B6913603B69002BC0
:105A200010D1414B1B68FB60404B1B683E4A136022
:105A30003E4AFB6813603E4B1B6801333C4A1360CF
:105A400000F076FA3B4B1B683A699A4249D3364BD1
:105A50001B681B68002B04D1364B4FF0FF321A60D5
:105A60003FE0314B1B68DB68DB68BB60BB685B6891
:105A70007B603A697B689A4203D22E4A7B68136046
:105A80002FE0BB6804331846FEF72EFFBB689B6A05
:105A9000002B04D0BB6818331846FEF725FFBB68FF
:105AA000DA6A254B1B689A4203D9BB68DB6A224A33
:105AB0001360BB68DA6A13469B0013449B001F4ABD
:105AC0001A44BB68043319461046FEF7B0FEBB68A3
:105AD000DA6A1B4B1B68DB6A9A42B8D301237B61ED
